{
  "_format": "hh-sol-artifact-1",
  "contractName": "Subscription",
  "sourceName": "contracts/Subscription.sol",
  "abi": [
    {
      "inputs": [
        {
          "internalType": "address",
          "name": "_customer",
          "type": "address"
        }
      ],
      "stateMutability": "nonpayable",
      "type": "constructor"
    },
    {
      "anonymous": false,
      "inputs": [
        {
          "indexed": true,
          "internalType": "address",
          "name": "user",
          "type": "address"
        },
        {
          "indexed": false,
          "internalType": "uint256",
          "name": "totalPrice",
          "type": "uint256"
        }
      ],
      "name": "SubscriptionPurchased",
      "type": "event"
    },
    {
      "inputs": [
        {
          "internalType": "address",
          "name": "",
          "type": "address"
        }
      ],
      "name": "activeSubscription",
      "outputs": [
        {
          "internalType": "bool",
          "name": "",
          "type": "bool"
        }
      ],
      "stateMutability": "view",
      "type": "function"
    },
    {
      "inputs": [
        {
          "internalType": "address",
          "name": "",
          "type": "address"
        }
      ],
      "name": "balances",
      "outputs": [
        {
          "internalType": "uint256",
          "name": "",
          "type": "uint256"
        }
      ],
      "stateMutability": "view",
      "type": "function"
    },
    {
      "inputs": [
        {
          "internalType": "uint8",
          "name": "_activeSub",
          "type": "uint8"
        }
      ],
      "name": "cancelSubscription",
      "outputs": [],
      "stateMutability": "nonpayable",
      "type": "function"
    },
    {
      "inputs": [
        {
          "internalType": "string",
          "name": "_name",
          "type": "string"
        },
        {
          "internalType": "uint8",
          "name": "_planDuration",
          "type": "uint8"
        },
        {
          "internalType": "enum Subscription.PaymentCycle",
          "name": "_paymentCycle",
          "type": "uint8"
        },
        {
          "internalType": "enum Subscription.CustomerRegister",
          "name": "_customerRegister",
          "type": "uint8"
        }
      ],
      "name": "checkPrice",
      "outputs": [],
      "stateMutability": "nonpayable",
      "type": "function"
    },
    {
      "inputs": [],
      "name": "customer",
      "outputs": [
        {
          "internalType": "address",
          "name": "",
          "type": "address"
        }
      ],
      "stateMutability": "view",
      "type": "function"
    },
    {
      "inputs": [
        {
          "internalType": "uint256",
          "name": "",
          "type": "uint256"
        }
      ],
      "name": "memberships",
      "outputs": [
        {
          "internalType": "string",
          "name": "name",
          "type": "string"
        },
        {
          "internalType": "address",
          "name": "customer",
          "type": "address"
        },
        {
          "internalType": "uint8",
          "name": "planDuration",
          "type": "uint8"
        },
        {
          "internalType": "enum Subscription.PaymentCycle",
          "name": "paymentCycle",
          "type": "uint8"
        },
        {
          "internalType": "enum Subscription.CustomerRegister",
          "name": "customerRegister",
          "type": "uint8"
        },
        {
          "internalType": "uint256",
          "name": "totalPrice",
          "type": "uint256"
        }
      ],
      "stateMutability": "view",
      "type": "function"
    },
    {
      "inputs": [
        {
          "internalType": "uint8",
          "name": "_quotedSub",
          "type": "uint8"
        }
      ],
      "name": "purchaseSubscription",
      "outputs": [],
      "stateMutability": "nonpayable",
      "type": "function"
    },
    {
      "inputs": [
        {
          "internalType": "address",
          "name": "",
          "type": "address"
        }
      ],
      "name": "purchasedSubscription",
      "outputs": [
        {
          "internalType": "bool",
          "name": "",
          "type": "bool"
        }
      ],
      "stateMutability": "view",
      "type": "function"
    },
    {
      "inputs": [
        {
          "internalType": "address",
          "name": "",
          "type": "address"
        }
      ],
      "name": "trialEndTimes",
      "outputs": [
        {
          "internalType": "uint256",
          "name": "",
          "type": "uint256"
        }
      ],
      "stateMutability": "view",
      "type": "function"
    },
    {
      "inputs": [
        {
          "internalType": "address",
          "name": "",
          "type": "address"
        }
      ],
      "name": "trialPeriod",
      "outputs": [
        {
          "internalType": "bool",
          "name": "",
          "type": "bool"
        }
      ],
      "stateMutability": "view",
      "type": "function"
    },
    {
      "inputs": [
        {
          "internalType": "uint8",
          "name": "_trialSub",
          "type": "uint8"
        }
      ],
      "name": "trialSubscription",
      "outputs": [],
      "stateMutability": "nonpayable",
      "type": "function"
    }
  ],
  "bytecode": "0x60806040523480156200001157600080fd5b506040516200263d3803806200263d833981810160405281019062000037919062000169565b806000806101000a81548173ffffffffffffffffffffffffffffffffffffffff021916908373ffffffffffffffffffffffffffffffffffffffff160217905550671bc16d674ec80000600160008060009054906101000a900473ffffffffffffffffffffffffffffffffffffffff1673ffffffffffffffffffffffffffffffffffffffff1673ffffffffffffffffffffffffffffffffffffffff1681526020019081526020016000206000828254620000f19190620001d4565b92505081905550506200020f565b600080fd5b600073ffffffffffffffffffffffffffffffffffffffff82169050919050565b6000620001318262000104565b9050919050565b620001438162000124565b81146200014f57600080fd5b50565b600081519050620001638162000138565b92915050565b600060208284031215620001825762000181620000ff565b5b6000620001928482850162000152565b91505092915050565b6000819050919050565b7f4e487b7100000000000000000000000000000000000000000000000000000000600052601160045260246000fd5b6000620001e1826200019b565b9150620001ee836200019b565b9250828201905080821115620002095762000208620001a5565b5b92915050565b61241e806200021f6000396000f3fe608060405234801561001057600080fd5b50600436106100a95760003560e01c806353d010f91161007157806353d010f91461017d5780638210fea3146101ad5780638f7fce2b146101dd578063c87bb42b146101f9578063cbc5c59214610229578063db62efd114610245576100a9565b806321d638f2146100ae57806327e235e3146100de5780632804b2c01461010e578063321621d71461012c57806343ecf90c14610161575b600080fd5b6100c860048036038101906100c391906115ca565b610261565b6040516100d59190611612565b60405180910390f35b6100f860048036038101906100f391906115ca565b610281565b6040516101059190611646565b60405180910390f35b610116610299565b6040516101239190611670565b60405180910390f35b610146600480360381019061014191906116b7565b6102bd565b6040516101589695949392919061184f565b60405180910390f35b61017b60048036038101906101769190611a62565b6103d8565b005b610197600480360381019061019291906115ca565b610ab8565b6040516101a49190611646565b60405180910390f35b6101c760048036038101906101c291906115ca565b610ad0565b6040516101d49190611612565b60405180910390f35b6101f760048036038101906101f29190611ae5565b610af0565b005b610213600480360381019061020e91906115ca565b610d94565b6040516102209190611612565b60405180910390f35b610243600480360381019061023e9190611ae5565b610db4565b005b61025f600480360381019061025a9190611ae5565b61110c565b005b60056020528060005260406000206000915054906101000a900460ff1681565b60016020528060005260406000206000915090505481565b60008054906101000a900473ffffffffffffffffffffffffffffffffffffffff1681565b600281815481106102cd57600080fd5b90600052602060002090600302016000915090508060000180546102f090611b41565b80601f016020809104026020016040519081016040528092919081815260200182805461031c90611b41565b80156103695780601f1061033e57610100808354040283529160200191610369565b820191906000526020600020905b81548152906001019060200180831161034c57829003601f168201915b5050505050908060010160009054906101000a900473ffffffffffffffffffffffffffffffffffffffff16908060010160149054906101000a900460ff16908060010160159054906101000a900460ff16908060010160169054906101000a900460ff16908060020154905086565b60008054906101000a900473ffffffffffffffffffffffffffffffffffffffff1673ffffffffffffffffffffffffffffffffffffffff163373ffffffffffffffffffffffffffffffffffffffff1614610466576040517f08c379a000000000000000000000000000000000000000000000000000000000815260040161045d90611be4565b60405180910390fd5b60001515600360003373ffffffffffffffffffffffffffffffffffffffff1673ffffffffffffffffffffffffffffffffffffffff16815260200190815260200160002060009054906101000a900460ff161515146104f9576040517f08c379a00000000000000000000000000000000000000000000000000000000081526004016104f090611c50565b60405180910390fd5b60001515600560003373ffffffffffffffffffffffffffffffffffffffff1673ffffffffffffffffffffffffffffffffffffffff16815260200190815260200160002060009054906101000a900460ff1615151461058c576040517f08c379a000000000000000000000000000000000000000000000000000000000815260040161058390611cbc565b60405180910390fd5b600080600080600060018111156105a6576105a5611790565b5b8560018111156105b9576105b8611790565b5b1480156105ea5750600060018111156105d5576105d4611790565b5b8660018111156105e8576105e7611790565b5b145b1561060857662386f26fc100009350662386f26fc1000091506107a4565b6000600181111561061c5761061b611790565b5b85600181111561062f5761062e611790565b5b14801561065f575060018081111561064a57610649611790565b5b86600181111561065d5761065c611790565b5b145b1561067d57662386f26fc10000935066038d7ea4c6800090506107a3565b6001808111156106905761068f611790565b5b8560018111156106a3576106a2611790565b5b1480156106d45750600060018111156106bf576106be611790565b5b8660018111156106d2576106d1611790565b5b145b156106f257666a94d74f4300009250662386f26fc1000091506107a2565b60018081111561070557610704611790565b5b85600181111561071857610717611790565b5b148015610748575060018081111561073357610732611790565b5b86600181111561074657610745611790565b5b145b1561076657666a94d74f430000925066038d7ea4c6800090506107a1565b6040517f08c379a000000000000000000000000000000000000000000000000000000000815260040161079890611d28565b60405180910390fd5b5b5b5b60008760ff16848484886107b89190611d77565b6107c29190611d77565b6107cc9190611d77565b6107d69190611dab565b905060006040518060c001604052808b81526020013373ffffffffffffffffffffffffffffffffffffffff1681526020018a60ff16815260200189600181111561082357610822611790565b5b815260200188600181111561083b5761083a611790565b5b8152602001838152509050600281908060018154018082558091505060019003906000526020600020906003020160009091909190915060008201518160000190816108879190611f99565b5060208201518160010160006101000a81548173ffffffffffffffffffffffffffffffffffffffff021916908373ffffffffffffffffffffffffffffffffffffffff16021790555060408201518160010160146101000a81548160ff021916908360ff16021790555060608201518160010160156101000a81548160ff0219169083600181111561091b5761091a611790565b5b021790555060808201518160010160166101000a81548160ff0219169083600181111561094b5761094a611790565b5b021790555060a0820151816002015550506001600360003373ffffffffffffffffffffffffffffffffffffffff1673ffffffffffffffffffffffffffffffffffffffff16815260200190815260200160002060006101000a81548160ff0219169083151502179055506000600460003373ffffffffffffffffffffffffffffffffffffffff1673ffffffffffffffffffffffffffffffffffffffff16815260200190815260200160002060006101000a81548160ff0219169083151502179055506206978042610a1b9190611d77565b600660003373ffffffffffffffffffffffffffffffffffffffff1673ffffffffffffffffffffffffffffffffffffffff168152602001908152602001600020819055503373ffffffffffffffffffffffffffffffffffffffff167f799bcc5d05a0d37fc0012dba6e154d1353b3b36495bf076daf88f7b1428a3f8183604051610aa49190611646565b60405180910390a250505050505050505050565b60066020528060005260406000206000915090505481565b60046020528060005260406000206000915054906101000a900460ff1681565b60011515600460003373ffffffffffffffffffffffffffffffffffffffff1673ffffffffffffffffffffffffffffffffffffffff16815260200190815260200160002060009054906101000a900460ff16151514610b83576040517f08c379a0000000000000000000000000000000000000000000000000000000008152600401610b7a906120b7565b60405180910390fd5b6000600160003373ffffffffffffffffffffffffffffffffffffffff1673ffffffffffffffffffffffffffffffffffffffff1681526020019081526020016000205411610c05576040517f08c379a0000000000000000000000000000000000000000000000000000000008152600401610bfc90612123565b60405180910390fd5b600060028260ff1681548110610c1e57610c1d612143565b5b906000526020600020906003020160020154905080600160003373ffffffffffffffffffffffffffffffffffffffff1673ffffffffffffffffffffffffffffffffffffffff1681526020019081526020016000206000828254610c819190611d77565b925050819055506000600360003373ffffffffffffffffffffffffffffffffffffffff1673ffffffffffffffffffffffffffffffffffffffff16815260200190815260200160002060006101000a81548160ff0219169083151502179055506000600460003373ffffffffffffffffffffffffffffffffffffffff1673ffffffffffffffffffffffffffffffffffffffff16815260200190815260200160002060006101000a81548160ff0219169083151502179055506000600560003373ffffffffffffffffffffffffffffffffffffffff1673ffffffffffffffffffffffffffffffffffffffff16815260200190815260200160002060006101000a81548160ff0219169083151502179055505050565b60036020528060005260406000206000915054906101000a900460ff1681565b60011515600360003373ffffffffffffffffffffffffffffffffffffffff1673ffffffffffffffffffffffffffffffffffffffff16815260200190815260200160002060009054906101000a900460ff16151514610e47576040517f08c379a0000000000000000000000000000000000000000000000000000000008152600401610e3e906121be565b60405180910390fd5b60001515600460003373ffffffffffffffffffffffffffffffffffffffff1673ffffffffffffffffffffffffffffffffffffffff16815260200190815260200160002060009054906101000a900460ff16151514610eda576040517f08c379a0000000000000000000000000000000000000000000000000000000008152600401610ed19061222a565b60405180910390fd5b6000600160003373ffffffffffffffffffffffffffffffffffffffff1673ffffffffffffffffffffffffffffffffffffffff1681526020019081526020016000205411610f5c576040517f08c379a0000000000000000000000000000000000000000000000000000000008152600401610f5390612123565b60405180910390fd5b600060028260ff1681548110610f7557610f74612143565b5b906000526020600020906003020160020154905080600160008060009054906101000a900473ffffffffffffffffffffffffffffffffffffffff1673ffffffffffffffffffffffffffffffffffffffff1673ffffffffffffffffffffffffffffffffffffffff1681526020019081526020016000206000828254610ff9919061224a565b925050819055506000600360003373ffffffffffffffffffffffffffffffffffffffff1673ffffffffffffffffffffffffffffffffffffffff16815260200190815260200160002060006101000a81548160ff0219169083151502179055506001600460003373ffffffffffffffffffffffffffffffffffffffff1673ffffffffffffffffffffffffffffffffffffffff16815260200190815260200160002060006101000a81548160ff0219169083151502179055506000600560003373ffffffffffffffffffffffffffffffffffffffff1673ffffffffffffffffffffffffffffffffffffffff16815260200190815260200160002060006101000a81548160ff0219169083151502179055505050565b60008054906101000a900473ffffffffffffffffffffffffffffffffffffffff1673ffffffffffffffffffffffffffffffffffffffff163373ffffffffffffffffffffffffffffffffffffffff161461119a576040517f08c379a000000000000000000000000000000000000000000000000000000000815260040161119190611be4565b60405180910390fd5b60001515600560003373ffffffffffffffffffffffffffffffffffffffff1673ffffffffffffffffffffffffffffffffffffffff16815260200190815260200160002060009054906101000a900460ff1615151461122d576040517f08c379a0000000000000000000000000000000000000000000000000000000008152600401611224906122ca565b60405180910390fd5b60001515600460003373ffffffffffffffffffffffffffffffffffffffff1673ffffffffffffffffffffffffffffffffffffffff16815260200190815260200160002060009054906101000a900460ff161515146112c0576040517f08c379a00000000000000000000000000000000000000000000000000000000081526004016112b79061222a565b60405180910390fd5b60011515600360003373ffffffffffffffffffffffffffffffffffffffff1673ffffffffffffffffffffffffffffffffffffffff16815260200190815260200160002060009054906101000a900460ff16151514611353576040517f08c379a000000000000000000000000000000000000000000000000000000000815260040161134a906121be565b60405180910390fd5b6002805490508160ff161061139d576040517f08c379a000000000000000000000000000000000000000000000000000000000815260040161139490612336565b60405180910390fd5b6001600560003373ffffffffffffffffffffffffffffffffffffffff1673ffffffffffffffffffffffffffffffffffffffff16815260200190815260200160002060006101000a81548160ff02191690831515021790555062069780426114049190611d77565b600660003373ffffffffffffffffffffffffffffffffffffffff1673ffffffffffffffffffffffffffffffffffffffff16815260200190815260200160002081905550600060028260ff16815481106114605761145f612143565b5b906000526020600020906003020190503373ffffffffffffffffffffffffffffffffffffffff168160010160009054906101000a900473ffffffffffffffffffffffffffffffffffffffff1673ffffffffffffffffffffffffffffffffffffffff1614611502576040517f08c379a00000000000000000000000000000000000000000000000000000000081526004016114f9906123c8565b60405180910390fd5b3373ffffffffffffffffffffffffffffffffffffffff167f799bcc5d05a0d37fc0012dba6e154d1353b3b36495bf076daf88f7b1428a3f81826002015460405161154c9190611646565b60405180910390a25050565b6000604051905090565b600080fd5b600080fd5b600073ffffffffffffffffffffffffffffffffffffffff82169050919050565b60006115978261156c565b9050919050565b6115a78161158c565b81146115b257600080fd5b50565b6000813590506115c48161159e565b92915050565b6000602082840312156115e0576115df611562565b5b60006115ee848285016115b5565b91505092915050565b60008115159050919050565b61160c816115f7565b82525050565b60006020820190506116276000830184611603565b92915050565b6000819050919050565b6116408161162d565b82525050565b600060208201905061165b6000830184611637565b92915050565b61166a8161158c565b82525050565b60006020820190506116856000830184611661565b92915050565b6116948161162d565b811461169f57600080fd5b50565b6000813590506116b18161168b565b92915050565b6000602082840312156116cd576116cc611562565b5b60006116db848285016116a2565b91505092915050565b600081519050919050565b600082825260208201905092915050565b60005b8381101561171e578082015181840152602081019050611703565b60008484015250505050565b6000601f19601f8301169050919050565b6000611746826116e4565b61175081856116ef565b9350611760818560208601611700565b6117698161172a565b840191505092915050565b600060ff82169050919050565b61178a81611774565b82525050565b7f4e487b7100000000000000000000000000000000000000000000000000000000600052602160045260246000fd5b600281106117d0576117cf611790565b5b50565b60008190506117e1826117bf565b919050565b60006117f1826117d3565b9050919050565b611801816117e6565b82525050565b6002811061181857611817611790565b5b50565b600081905061182982611807565b919050565b60006118398261181b565b9050919050565b6118498161182e565b82525050565b600060c0820190508181036000830152611869818961173b565b90506118786020830188611661565b6118856040830187611781565b61189260608301866117f8565b61189f6080830185611840565b6118ac60a0830184611637565b979650505050505050565b600080fd5b600080fd5b7f4e487b7100000000000000000000000000000000000000000000000000000000600052604160045260246000fd5b6118f98261172a565b810181811067ffffffffffffffff82111715611918576119176118c1565b5b80604052505050565b600061192b611558565b905061193782826118f0565b919050565b600067ffffffffffffffff821115611957576119566118c1565b5b6119608261172a565b9050602081019050919050565b82818337600083830152505050565b600061198f61198a8461193c565b611921565b9050828152602081018484840111156119ab576119aa6118bc565b5b6119b684828561196d565b509392505050565b600082601f8301126119d3576119d26118b7565b5b81356119e384826020860161197c565b91505092915050565b6119f581611774565b8114611a0057600080fd5b50565b600081359050611a12816119ec565b92915050565b60028110611a2557600080fd5b50565b600081359050611a3781611a18565b92915050565b60028110611a4a57600080fd5b50565b600081359050611a5c81611a3d565b92915050565b60008060008060808587031215611a7c57611a7b611562565b5b600085013567ffffffffffffffff811115611a9a57611a99611567565b5b611aa6878288016119be565b9450506020611ab787828801611a03565b9350506040611ac887828801611a28565b9250506060611ad987828801611a4d565b91505092959194509250565b600060208284031215611afb57611afa611562565b5b6000611b0984828501611a03565b91505092915050565b7f4e487b7100000000000000000000000000000000000000000000000000000000600052602260045260246000fd5b60006002820490506001821680611b5957607f821691505b602082108103611b6c57611b6b611b12565b5b50919050565b7f4f6e6c792074686520637573746f6d65722063616e2063616c6c20746869732060008201527f66756e6374696f6e000000000000000000000000000000000000000000000000602082015250565b6000611bce6028836116ef565b9150611bd982611b72565b604082019050919050565b60006020820190508181036000830152611bfd81611bc1565b9050919050565b7f537562736372697074696f6e20616c7265616479206163746976650000000000600082015250565b6000611c3a601b836116ef565b9150611c4582611c04565b602082019050919050565b60006020820190508181036000830152611c6981611c2d565b9050919050565b7f596f7520616c726561647920686164206120747269616c20706572696f642100600082015250565b6000611ca6601f836116ef565b9150611cb182611c70565b602082019050919050565b60006020820190508181036000830152611cd581611c99565b9050919050565b7f496e76616c69642073656c656374696f6e000000000000000000000000000000600082015250565b6000611d126011836116ef565b9150611d1d82611cdc565b602082019050919050565b60006020820190508181036000830152611d4181611d05565b9050919050565b7f4e487b7100000000000000000000000000000000000000000000000000000000600052601160045260246000fd5b6000611d828261162d565b9150611d8d8361162d565b9250828201905080821115611da557611da4611d48565b5b92915050565b6000611db68261162d565b9150611dc18361162d565b9250828202611dcf8161162d565b91508282048414831517611de657611de5611d48565b5b5092915050565b60008190508160005260206000209050919050565b60006020601f8301049050919050565b600082821b905092915050565b600060088302611e4f7fffffffffffffffffffffffffffffffffffffffffffffffffffffffffffffffff82611e12565b611e598683611e12565b95508019841693508086168417925050509392505050565b6000819050919050565b6000611e96611e91611e8c8461162d565b611e71565b61162d565b9050919050565b6000819050919050565b611eb083611e7b565b611ec4611ebc82611e9d565b848454611e1f565b825550505050565b600090565b611ed9611ecc565b611ee4818484611ea7565b505050565b5b81811015611f0857611efd600082611ed1565b600181019050611eea565b5050565b601f821115611f4d57611f1e81611ded565b611f2784611e02565b81016020851015611f36578190505b611f4a611f4285611e02565b830182611ee9565b50505b505050565b600082821c905092915050565b6000611f7060001984600802611f52565b1980831691505092915050565b6000611f898383611f5f565b9150826002028217905092915050565b611fa2826116e4565b67ffffffffffffffff811115611fbb57611fba6118c1565b5b611fc58254611b41565b611fd0828285611f0c565b600060209050601f8311600181146120035760008415611ff1578287015190505b611ffb8582611f7d565b865550612063565b601f19841661201186611ded565b60005b8281101561203957848901518255600182019150602085019450602081019050612014565b868310156120565784890151612052601f891682611f5f565b8355505b6001600288020188555050505b505050505050565b7f4e6f2061637469766520737562736372697074696f6e20746f2063616e63656c600082015250565b60006120a16020836116ef565b91506120ac8261206b565b602082019050919050565b600060208201905081810360008301526120d081612094565b9050919050565b7f496e73756666696369656e742062616c616e6365000000000000000000000000600082015250565b600061210d6014836116ef565b9150612118826120d7565b602082019050919050565b6000602082019050818103600083015261213c81612100565b9050919050565b7f4e487b7100000000000000000000000000000000000000000000000000000000600052603260045260246000fd5b7f537562736372697074696f6e206e6f7420616374697665000000000000000000600082015250565b60006121a86017836116ef565b91506121b382612172565b602082019050919050565b600060208201905081810360008301526121d78161219b565b9050919050565b7f537562736372697074696f6e20616c7265616479207075726368617365640000600082015250565b6000612214601e836116ef565b915061221f826121de565b602082019050919050565b6000602082019050818103600083015261224381612207565b9050919050565b60006122558261162d565b91506122608361162d565b925082820390508181111561227857612277611d48565b5b92915050565b7f547269616c20706572696f6420616c7265616479207265636569766564000000600082015250565b60006122b4601d836116ef565b91506122bf8261227e565b602082019050919050565b600060208201905081810360008301526122e3816122a7565b9050919050565b7f496e76616c696420737562736372697074696f6e2073656c656374696f6e0000600082015250565b6000612320601e836116ef565b915061232b826122ea565b602082019050919050565b6000602082019050818103600083015261234f81612313565b9050919050565b7f596f7520646f206e6f7420686176652061636365737320746f2074686973207360008201527f7562736372697074696f6e000000000000000000000000000000000000000000602082015250565b60006123b2602b836116ef565b91506123bd82612356565b604082019050919050565b600060208201905081810360008301526123e1816123a5565b905091905056fea264697066735822122024902cbd67430526f19f22c97b5306243325fd2211c3d9438ff5958e72e1a82d64736f6c63430008130033",
  "linkReferences": {},
  "deployedLinkReferences": {}
}