{
  "contractName": "Automation",
  "abi": [
    {
      "inputs": [],
      "name": "counter",
      "outputs": [
        {
          "internalType": "uint256",
          "name": "",
          "type": "uint256"
        }
      ],
      "stateMutability": "view",
      "type": "function",
      "constant": true
    },
    {
      "inputs": [],
      "name": "interval",
      "outputs": [
        {
          "internalType": "uint256",
          "name": "",
          "type": "uint256"
        }
      ],
      "stateMutability": "view",
      "type": "function",
      "constant": true
    },
    {
      "inputs": [],
      "name": "lastExecutionTime",
      "outputs": [
        {
          "internalType": "uint256",
          "name": "",
          "type": "uint256"
        }
      ],
      "stateMutability": "view",
      "type": "function",
      "constant": true
    },
    {
      "inputs": [],
      "name": "pressCounter",
      "outputs": [],
      "stateMutability": "nonpayable",
      "type": "function"
    },
    {
      "inputs": [],
      "name": "viewCounter",
      "outputs": [
        {
          "internalType": "uint256",
          "name": "",
          "type": "uint256"
        }
      ],
      "stateMutability": "view",
      "type": "function",
      "constant": true
    },
    {
      "inputs": [],
      "name": "getTimeLeft",
      "outputs": [
        {
          "internalType": "uint256",
          "name": "",
          "type": "uint256"
        }
      ],
      "stateMutability": "view",
      "type": "function",
      "constant": true
    }
  ],
  "bytecode": "0x60806040525f8055348015610012575f80fd5b5061033e806100205f395ff3fe608060405234801561000f575f80fd5b5060043610610060575f3560e01c806361bc221a14610064578063720872da1461008257806373b220c1146100a057806373b379bd146100aa578063947a36fb146100c8578063c7e284b8146100e6575b5f80fd5b61006c610104565b60405161007991906101e4565b60405180910390f35b61008a610109565b60405161009791906101e4565b60405180910390f35b6100a8610111565b005b6100b2610183565b6040516100bf91906101e4565b60405180910390f35b6100d0610189565b6040516100dd91906101e4565b60405180910390f35b6100ee61018e565b6040516100fb91906101e4565b60405180910390f35b5f5481565b5f8054905090565b600a600154610120919061022a565b421015610162576040517f08c379a0000000000000000000000000000000000000000000000000000000008152600401610159906102b7565b60405180910390fd5b4260018190555060015f8082825461017a919061022a565b92505081905550565b60015481565b600a81565b5f600a60015461019e919061022a565b42106101ac575f90506101c9565b42600a6001546101bc919061022a565b6101c691906102d5565b90505b90565b5f819050919050565b6101de816101cc565b82525050565b5f6020820190506101f75f8301846101d5565b92915050565b7f4e487b71000000000000000000000000000000000000000000000000000000005f52601160045260245ffd5b5f610234826101cc565b915061023f836101cc565b9250828201905080821115610257576102566101fd565b5b92915050565b5f82825260208201905092915050565b7f3130207365636f6e6473206e6f7420656c6170736564207965742e00000000005f82015250565b5f6102a1601b8361025d565b91506102ac8261026d565b602082019050919050565b5f6020820190508181035f8301526102ce81610295565b9050919050565b5f6102df826101cc565b91506102ea836101cc565b9250828203905081811115610302576103016101fd565b5b9291505056fea2646970667358221220d87ff06fc64c7f42a2860c5700cc3b7c4e1f5216510740ed282bf89e53c7928964736f6c63430008140033",
  "immutableReferences": {},
  "source": "// SPDX-License-Identifier: MIT\r\npragma solidity ^0.8.18;\r\n\r\ncontract Automation {\r\n\r\n    uint public counter = 0;\r\n    uint public lastExecutionTime;\r\n    uint public constant interval = 10 seconds;\r\n\r\n    function pressCounter() public {\r\n        require(block.timestamp >= lastExecutionTime + interval, \"10 seconds not elapsed yet.\");\r\n        lastExecutionTime = block.timestamp;\r\n        counter += 1;\r\n    }\r\n\r\n    function viewCounter() public view returns(uint) {\r\n        return counter;\r\n    }\r\n\r\n    function getTimeLeft() public view returns (uint) {\r\n        if (block.timestamp >= lastExecutionTime + interval) {\r\n            return 0;\r\n        }\r\n        return lastExecutionTime + interval - block.timestamp;\r\n    }\r\n}\r\n",
  "sourcePath": "C:\\Users\\ADMIN\\Assignments M14\\automations\\contracts\\automation.sol",
  "compiler": {
    "name": "solc",
    "version": "0.8.20+commit.a1b79de6.Emscripten.clang"
  },
  "schemaVersion": "3.4.14",
  "updatedAt": "2023-08-05T00:40:15.372Z",
  "networkType": "ethereum",
  "devdoc": {
    "kind": "dev",
    "methods": {},
    "version": 1
  },
  "userdoc": {
    "kind": "user",
    "methods": {},
    "version": 1
  }
}