{
  "contractName": "Insurance",
  "abi": [
    {
      "inputs": [],
      "stateMutability": "nonpayable",
      "type": "constructor"
    },
    {
      "anonymous": false,
      "inputs": [
        {
          "indexed": false,
          "internalType": "address",
          "name": "owner",
          "type": "address"
        },
        {
          "indexed": false,
          "internalType": "string",
          "name": "complaintIssue",
          "type": "string"
        },
        {
          "indexed": false,
          "internalType": "string",
          "name": "explanation",
          "type": "string"
        }
      ],
      "name": "ClaimFiled",
      "type": "event"
    },
    {
      "anonymous": false,
      "inputs": [
        {
          "indexed": false,
          "internalType": "address",
          "name": "owner",
          "type": "address"
        },
        {
          "indexed": false,
          "internalType": "uint256",
          "name": "policySelection",
          "type": "uint256"
        },
        {
          "indexed": false,
          "internalType": "uint256",
          "name": "_premiumAmountToRefund",
          "type": "uint256"
        }
      ],
      "name": "PolicyCanceled",
      "type": "event"
    },
    {
      "anonymous": false,
      "inputs": [
        {
          "indexed": false,
          "internalType": "address",
          "name": "owner",
          "type": "address"
        },
        {
          "indexed": false,
          "internalType": "uint256",
          "name": "policy",
          "type": "uint256"
        },
        {
          "indexed": false,
          "internalType": "uint256",
          "name": "premiumAmount",
          "type": "uint256"
        }
      ],
      "name": "PolicyPurchased",
      "type": "event"
    },
    {
      "inputs": [
        {
          "internalType": "address",
          "name": "",
          "type": "address"
        }
      ],
      "name": "activePolicy",
      "outputs": [
        {
          "internalType": "bool",
          "name": "",
          "type": "bool"
        }
      ],
      "stateMutability": "view",
      "type": "function",
      "constant": true
    },
    {
      "inputs": [
        {
          "internalType": "address",
          "name": "",
          "type": "address"
        }
      ],
      "name": "balances",
      "outputs": [
        {
          "internalType": "uint256",
          "name": "",
          "type": "uint256"
        }
      ],
      "stateMutability": "view",
      "type": "function",
      "constant": true
    },
    {
      "inputs": [
        {
          "internalType": "uint256",
          "name": "",
          "type": "uint256"
        }
      ],
      "name": "complaint",
      "outputs": [
        {
          "internalType": "address",
          "name": "customer",
          "type": "address"
        },
        {
          "internalType": "enum Insurance.CoverageType",
          "name": "coverageType",
          "type": "uint8"
        },
        {
          "internalType": "enum Insurance.ClaimComplaint",
          "name": "claimComplaint",
          "type": "uint8"
        }
      ],
      "stateMutability": "view",
      "type": "function",
      "constant": true
    },
    {
      "inputs": [],
      "name": "owner",
      "outputs": [
        {
          "internalType": "address",
          "name": "",
          "type": "address"
        }
      ],
      "stateMutability": "view",
      "type": "function",
      "constant": true
    },
    {
      "inputs": [
        {
          "internalType": "uint256",
          "name": "",
          "type": "uint256"
        }
      ],
      "name": "policies",
      "outputs": [
        {
          "internalType": "address",
          "name": "customer",
          "type": "address"
        },
        {
          "internalType": "uint256",
          "name": "premiumAmount",
          "type": "uint256"
        },
        {
          "internalType": "uint256",
          "name": "coverageDuration",
          "type": "uint256"
        },
        {
          "internalType": "enum Insurance.CoverageType",
          "name": "coverageType",
          "type": "uint8"
        }
      ],
      "stateMutability": "view",
      "type": "function",
      "constant": true
    },
    {
      "inputs": [
        {
          "internalType": "address",
          "name": "",
          "type": "address"
        }
      ],
      "name": "quotedPolicy",
      "outputs": [
        {
          "internalType": "bool",
          "name": "",
          "type": "bool"
        }
      ],
      "stateMutability": "view",
      "type": "function",
      "constant": true
    },
    {
      "stateMutability": "payable",
      "type": "receive",
      "payable": true
    },
    {
      "inputs": [
        {
          "internalType": "uint256",
          "name": "_coverageDuration",
          "type": "uint256"
        },
        {
          "internalType": "enum Insurance.CoverageType",
          "name": "_CoverageType",
          "type": "uint8"
        }
      ],
      "name": "quotePolicy",
      "outputs": [],
      "stateMutability": "nonpayable",
      "type": "function"
    },
    {
      "inputs": [
        {
          "internalType": "uint256",
          "name": "_pickPolicy",
          "type": "uint256"
        }
      ],
      "name": "purchasePolicy",
      "outputs": [],
      "stateMutability": "payable",
      "type": "function",
      "payable": true
    },
    {
      "inputs": [
        {
          "internalType": "uint256",
          "name": "_policySelection",
          "type": "uint256"
        }
      ],
      "name": "cancelPolicy",
      "outputs": [],
      "stateMutability": "nonpayable",
      "type": "function"
    },
    {
      "inputs": [
        {
          "internalType": "string",
          "name": "_complaintIssue",
          "type": "string"
        },
        {
          "internalType": "string",
          "name": "_explanation",
          "type": "string"
        }
      ],
      "name": "fileComplain",
      "outputs": [],
      "stateMutability": "nonpayable",
      "type": "function"
    }
  ],
  "bytecode": "0x608060405234801562000010575f80fd5b503360025f6101000a81548173ffffffffffffffffffffffffffffffffffffffff021916908373ffffffffffffffffffffffffffffffffffffffff160217905550678ac7230489e8000060035f60025f9054906101000a900473ffffffffffffffffffffffffffffffffffffffff1673ffffffffffffffffffffffffffffffffffffffff1673ffffffffffffffffffffffffffffffffffffffff1681526020019081526020015f205f828254620000c891906200010b565b9250508190555062000145565b5f819050919050565b7f4e487b71000000000000000000000000000000000000000000000000000000005f52601160045260245ffd5b5f6200011782620000d5565b91506200012483620000d5565b92508282019050808211156200013f576200013e620000de565b5b92915050565b61186d80620001535f395ff3fe608060405260043610610094575f3560e01c806385a249cc1161005857806385a249cc146101f25780638da5cb5b1461021a578063b20e8bcc14610244578063c1260c9a1461026c578063d3e8948314610288576100d4565b8063237a06fb146100d857806327e235e314610114578063307dda901461015057806344703e5b1461018e57806381fe154c146101b6576100d4565b366100d4576040517f08c379a00000000000000000000000000000000000000000000000000000000081526004016100cb90610ebf565b60405180910390fd5b5f80fd5b3480156100e3575f80fd5b506100fe60048036038101906100f99190610f48565b6102c7565b60405161010b9190610f8d565b60405180910390f35b34801561011f575f80fd5b5061013a60048036038101906101359190610f48565b6102e4565b6040516101479190610fbe565b60405180910390f35b34801561015b575f80fd5b5061017660048036038101906101719190611001565b6102f9565b604051610185939291906110f4565b60405180910390f35b348015610199575f80fd5b506101b460048036038101906101af9190611265565b610361565b005b3480156101c1575f80fd5b506101dc60048036038101906101d79190610f48565b610589565b6040516101e99190610f8d565b60405180910390f35b3480156101fd575f80fd5b50610218600480360381019061021391906112fe565b6105a6565b005b348015610225575f80fd5b5061022e61087a565b60405161023b919061133c565b60405180910390f35b34801561024f575f80fd5b5061026a60048036038101906102659190611001565b61089f565b005b61028660048036038101906102819190611001565b610aa2565b005b348015610293575f80fd5b506102ae60048036038101906102a99190611001565b610dda565b6040516102be9493929190611355565b60405180910390f35b6005602052805f5260405f205f915054906101000a900460ff1681565b6003602052805f5260405f205f915090505481565b60018181548110610308575f80fd5b905f5260205f20015f91509050805f015f9054906101000a900473ffffffffffffffffffffffffffffffffffffffff1690805f0160149054906101000a900460ff1690805f0160159054906101000a900460ff16905083565b60055f3373ffffffffffffffffffffffffffffffffffffffff1673ffffffffffffffffffffffffffffffffffffffff1681526020019081526020015f205f9054906101000a900460ff166103ea576040517f08c379a00000000000000000000000000000000000000000000000000000000081526004016103e190611408565b60405180910390fd5b5f60405180606001604052803373ffffffffffffffffffffffffffffffffffffffff1681526020015f60015f805490506104249190611453565b8154811061043557610434611486565b5b905f5260205f2090600402016003015f9054906101000a900460ff1660028111156104635761046261103b565b5b815260200160078081111561047b5761047a61103b565b5b8152509050600181908060018154018082558091505060019003905f5260205f20015f909190919091505f820151815f015f6101000a81548173ffffffffffffffffffffffffffffffffffffffff021916908373ffffffffffffffffffffffffffffffffffffffff1602179055506020820151815f0160146101000a81548160ff021916908360028111156105135761051261103b565b5b02179055506040820151815f0160156101000a81548160ff021916908360078111156105425761054161103b565b5b021790555050507f25f59cf4c0615560dc188fd281d4db9dee8e59bfd0ba1ace81f0e288c724ae5f33848460405161057c9392919061151d565b60405180910390a1505050565b6004602052805f5260405f205f915054906101000a900460ff1681565b5f805f60028111156105bb576105ba61103b565b5b8360028111156105ce576105cd61103b565b5b036105ec5766038d7ea4c68000915066071afd498d000090506106b2565b60016002811115610600576105ff61103b565b5b8360028111156106135761061261103b565b5b036106315766071afd498d00009150660e35fa931a000090506106b1565b6002808111156106445761064361103b565b5b8360028111156106575761065661103b565b5b0361067557660aa87bee5380009150661550f7dca7000090506106b0565b6040517f08c379a00000000000000000000000000000000000000000000000000000000081526004016106a7906115aa565b60405180910390fd5b5b5b5f84826106bf91906115c8565b836106ca9190611609565b90505f60405180608001604052803373ffffffffffffffffffffffffffffffffffffffff1681526020018381526020018781526020018660028111156107135761071261103b565b5b81525090505f81908060018154018082558091505060019003905f5260205f2090600402015f909190919091505f820151815f015f6101000a81548173ffffffffffffffffffffffffffffffffffffffff021916908373ffffffffffffffffffffffffffffffffffffffff16021790555060208201518160010155604082015181600201556060820151816003015f6101000a81548160ff021916908360028111156107c2576107c161103b565b5b02179055505050600160045f3373ffffffffffffffffffffffffffffffffffffffff1673ffffffffffffffffffffffffffffffffffffffff1681526020019081526020015f205f6101000a81548160ff0219169083151502179055505f60055f3373ffffffffffffffffffffffffffffffffffffffff1673ffffffffffffffffffffffffffffffffffffffff1681526020019081526020015f205f6101000a81548160ff021916908315150217905550505050505050565b60025f9054906101000a900473ffffffffffffffffffffffffffffffffffffffff1681565b6001151560055f3373ffffffffffffffffffffffffffffffffffffffff1673ffffffffffffffffffffffffffffffffffffffff1681526020019081526020015f205f9054906101000a900460ff1615151461092f576040517f08c379a000000000000000000000000000000000000000000000000000000000815260040161092690611686565b60405180910390fd5b5f805490508110610975576040517f08c379a000000000000000000000000000000000000000000000000000000000815260040161096c906116ee565b60405180910390fd5b5f80828154811061098957610988611486565b5b905f5260205f2090600402016001015490505f60055f3373ffffffffffffffffffffffffffffffffffffffff1673ffffffffffffffffffffffffffffffffffffffff1681526020019081526020015f205f6101000a81548160ff0219169083151502179055508060035f60025f9054906101000a900473ffffffffffffffffffffffffffffffffffffffff1673ffffffffffffffffffffffffffffffffffffffff1673ffffffffffffffffffffffffffffffffffffffff1681526020019081526020015f205f828254610a5c9190611609565b925050819055507fd0a1c7204c966010f119040885b9108d38913c160777b296ee260184cf51b75e338383604051610a969392919061170c565b60405180910390a15050565b6001151560045f3373ffffffffffffffffffffffffffffffffffffffff1673ffffffffffffffffffffffffffffffffffffffff1681526020019081526020015f205f9054906101000a900460ff16151514610b32576040517f08c379a0000000000000000000000000000000000000000000000000000000008152600401610b29906117b1565b60405180910390fd5b5f805490508110610b78576040517f08c379a0000000000000000000000000000000000000000000000000000000008152600401610b6f906116ee565b60405180910390fd5b5f8181548110610b8b57610b8a611486565b5b905f5260205f2090600402016001015460035f60025f9054906101000a900473ffffffffffffffffffffffffffffffffffffffff1673ffffffffffffffffffffffffffffffffffffffff1673ffffffffffffffffffffffffffffffffffffffff1681526020019081526020015f20541015610c3b576040517f08c379a0000000000000000000000000000000000000000000000000000000008152600401610c3290611819565b60405180910390fd5b5f8181548110610c4e57610c4d611486565b5b905f5260205f2090600402016001015460035f60025f9054906101000a900473ffffffffffffffffffffffffffffffffffffffff1673ffffffffffffffffffffffffffffffffffffffff1673ffffffffffffffffffffffffffffffffffffffff1681526020019081526020015f205f828254610cca9190611453565b925050819055507fe3a4e855ca574024873a64ada77dfdb7f1342b982fbfe29edf24be638f20d39833825f8481548110610d0757610d06611486565b5b905f5260205f20906004020160010154604051610d269392919061170c565b60405180910390a15f60045f3373ffffffffffffffffffffffffffffffffffffffff1673ffffffffffffffffffffffffffffffffffffffff1681526020019081526020015f205f6101000a81548160ff021916908315150217905550600160055f3373ffffffffffffffffffffffffffffffffffffffff1673ffffffffffffffffffffffffffffffffffffffff1681526020019081526020015f205f6101000a81548160ff02191690831515021790555050565b5f8181548110610de8575f80fd5b905f5260205f2090600402015f91509050805f015f9054906101000a900473ffffffffffffffffffffffffffffffffffffffff1690806001015490806002015490806003015f9054906101000a900460ff16905084565b5f82825260208201905092915050565b7f5468697320636f6e747261637420646f6573206e6f74206163636570742064695f8201527f72656374207061796d656e747300000000000000000000000000000000000000602082015250565b5f610ea9602d83610e3f565b9150610eb482610e4f565b604082019050919050565b5f6020820190508181035f830152610ed681610e9d565b9050919050565b5f604051905090565b5f80fd5b5f80fd5b5f73ffffffffffffffffffffffffffffffffffffffff82169050919050565b5f610f1782610eee565b9050919050565b610f2781610f0d565b8114610f31575f80fd5b50565b5f81359050610f4281610f1e565b92915050565b5f60208284031215610f5d57610f5c610ee6565b5b5f610f6a84828501610f34565b91505092915050565b5f8115159050919050565b610f8781610f73565b82525050565b5f602082019050610fa05f830184610f7e565b92915050565b5f819050919050565b610fb881610fa6565b82525050565b5f602082019050610fd15f830184610faf565b92915050565b610fe081610fa6565b8114610fea575f80fd5b50565b5f81359050610ffb81610fd7565b92915050565b5f6020828403121561101657611015610ee6565b5b5f61102384828501610fed565b91505092915050565b61103581610f0d565b82525050565b7f4e487b71000000000000000000000000000000000000000000000000000000005f52602160045260245ffd5b600381106110795761107861103b565b5b50565b5f81905061108982611068565b919050565b5f6110988261107c565b9050919050565b6110a88161108e565b82525050565b600881106110bf576110be61103b565b5b50565b5f8190506110cf826110ae565b919050565b5f6110de826110c2565b9050919050565b6110ee816110d4565b82525050565b5f6060820190506111075f83018661102c565b611114602083018561109f565b61112160408301846110e5565b949350505050565b5f80fd5b5f80fd5b5f601f19601f8301169050919050565b7f4e487b71000000000000000000000000000000000000000000000000000000005f52604160045260245ffd5b61117782611131565b810181811067ffffffffffffffff8211171561119657611195611141565b5b80604052505050565b5f6111a8610edd565b90506111b4828261116e565b919050565b5f67ffffffffffffffff8211156111d3576111d2611141565b5b6111dc82611131565b9050602081019050919050565b828183375f83830152505050565b5f611209611204846111b9565b61119f565b9050828152602081018484840111156112255761122461112d565b5b6112308482856111e9565b509392505050565b5f82601f83011261124c5761124b611129565b5b813561125c8482602086016111f7565b91505092915050565b5f806040838503121561127b5761127a610ee6565b5b5f83013567ffffffffffffffff81111561129857611297610eea565b5b6112a485828601611238565b925050602083013567ffffffffffffffff8111156112c5576112c4610eea565b5b6112d185828601611238565b9150509250929050565b600381106112e7575f80fd5b50565b5f813590506112f8816112db565b92915050565b5f806040838503121561131457611313610ee6565b5b5f61132185828601610fed565b9250506020611332858286016112ea565b9150509250929050565b5f60208201905061134f5f83018461102c565b92915050565b5f6080820190506113685f83018761102c565b6113756020830186610faf565b6113826040830185610faf565b61138f606083018461109f565b95945050505050565b7f596f75206e65656420746f207075726368617365206120706f6c69637920746f5f8201527f206d616b65206120636f6d706c61696e74210000000000000000000000000000602082015250565b5f6113f2603283610e3f565b91506113fd82611398565b604082019050919050565b5f6020820190508181035f83015261141f816113e6565b9050919050565b7f4e487b71000000000000000000000000000000000000000000000000000000005f52601160045260245ffd5b5f61145d82610fa6565b915061146883610fa6565b92508282039050818111156114805761147f611426565b5b92915050565b7f4e487b71000000000000000000000000000000000000000000000000000000005f52603260045260245ffd5b5f81519050919050565b5f5b838110156114da5780820151818401526020810190506114bf565b5f8484015250505050565b5f6114ef826114b3565b6114f98185610e3f565b93506115098185602086016114bd565b61151281611131565b840191505092915050565b5f6060820190506115305f83018661102c565b818103602083015261154281856114e5565b9050818103604083015261155681846114e5565b9050949350505050565b7f4572726f722c2057726f6e6720496e70757421000000000000000000000000005f82015250565b5f611594601383610e3f565b915061159f82611560565b602082019050919050565b5f6020820190508181035f8301526115c181611588565b9050919050565b5f6115d282610fa6565b91506115dd83610fa6565b92508282026115eb81610fa6565b9150828204841483151761160257611601611426565b5b5092915050565b5f61161382610fa6565b915061161e83610fa6565b925082820190508082111561163657611635611426565b5b92915050565b7f54686520706f6c696379206e6565647320746f206265206163746976652100005f82015250565b5f611670601e83610e3f565b915061167b8261163c565b602082019050919050565b5f6020820190508181035f83015261169d81611664565b9050919050565b7f4572726f723a20506f6c69637920646f6573206e6f74206578697374000000005f82015250565b5f6116d8601c83610e3f565b91506116e3826116a4565b602082019050919050565b5f6020820190508181035f830152611705816116cc565b9050919050565b5f60608201905061171f5f83018661102c565b61172c6020830185610faf565b6117396040830184610faf565b949350505050565b7f596f75206e65656420746f2067657420612071756f7465206265666f726520705f8201527f757263686173696e672100000000000000000000000000000000000000000000602082015250565b5f61179b602a83610e3f565b91506117a682611741565b604082019050919050565b5f6020820190508181035f8301526117c88161178f565b9050919050565b7f4572726f723a20496e73756666696369656e742066756e6473000000000000005f82015250565b5f611803601983610e3f565b915061180e826117cf565b602082019050919050565b5f6020820190508181035f830152611830816117f7565b905091905056fea26469706673582212200603efeb2bead6c159c148f8d3cc3b067c3d785d2ac60a20dcad7a5726643f7f64736f6c63430008150033",
  "immutableReferences": {},
  "source": "// SPDX-License-Identifier: UNLICENSED\r\npragma solidity ^0.8.9;\r\n\r\ncontract Insurance {\r\n    \r\n    enum CoverageType { MinimumCoverage, MediumCoverage, FullCoverage }\r\n    enum ClaimComplaint {\r\n        Non_Fault,       // The policyholder is not at fault for the incident.\r\n        Fault,           // The policyholder is at fault for the incident.\r\n        Theft,           // The claim is related to theft or burglary.\r\n        AccidentalDamage, // The claim is due to accidental damage.\r\n        Fire,            // The claim is related to fire damage.\r\n        NaturalDisaster,  // The claim is related to damage caused by a natural disaster.\r\n        MedicalExpense,   // The claim involves medical expenses (e.g., health insurance).\r\n        Other            // For other types of claims.\r\n    }\r\n\r\n    struct Policy {\r\n        address customer;\r\n        uint256 premiumAmount; // Ether\r\n        uint256 coverageDuration; // Months\r\n        CoverageType coverageType; // Add more policy-related data here\r\n    }\r\n\r\n    struct ClaimInfo {\r\n        address customer;\r\n        CoverageType coverageType; // Customer Coverage\r\n        ClaimComplaint claimComplaint; // Customer ClaimOption\r\n    }\r\n\r\n    Policy[] public policies;\r\n    ClaimInfo[] public complaint;\r\n\r\n    event PolicyPurchased(address owner, uint256 policy, uint256 premiumAmount);\r\n    event ClaimFiled(address owner, string complaintIssue, string explanation);\r\n    event PolicyCanceled(address owner, uint256 policySelection, uint256 _premiumAmountToRefund);\r\n\r\n    address public owner;\r\n\r\n    mapping(address => uint256) public balances;\r\n    mapping(address => bool) public quotedPolicy;\r\n    mapping(address => bool) public activePolicy;\r\n\r\n    constructor() {\r\n        owner = msg.sender;\r\n        balances[owner] += 10 ether;\r\n    }\r\n\r\n    modifier onlyOwner() {\r\n        require(msg.sender == owner, \"Only the owner can call this function\");\r\n        _;\r\n    }\r\n\r\n    function quotePolicy(uint256 _coverageDuration, CoverageType _CoverageType) public {\r\n        uint256 basePrice;\r\n        uint256 coverageMultiplier;\r\n\r\n        if (_CoverageType == CoverageType.MinimumCoverage) {\r\n            basePrice = 0.001 ether;  \r\n            coverageMultiplier = 0.002 ether;  \r\n        } else if (_CoverageType == CoverageType.MediumCoverage) {\r\n            basePrice = 0.002 ether;  \r\n            coverageMultiplier = 0.004 ether;  \r\n        } else if (_CoverageType == CoverageType.FullCoverage) {\r\n            basePrice = 0.003 ether;  \r\n            coverageMultiplier = 0.006 ether;  \r\n        } else {\r\n            revert(\"Error, Wrong Input!\");\r\n        }\r\n\r\n        uint256 totalPremium = (basePrice + coverageMultiplier * _coverageDuration);\r\n\r\n        Policy memory newPolicy = Policy({\r\n            customer: msg.sender,\r\n            premiumAmount: totalPremium,\r\n            coverageDuration: _coverageDuration,\r\n            coverageType: _CoverageType\r\n        });\r\n\r\n        policies.push(newPolicy);\r\n        quotedPolicy[msg.sender] = true; \r\n        activePolicy[msg.sender] = false;\r\n    }\r\n\r\n    function purchasePolicy(uint256 _pickPolicy) public payable {\r\n        require(quotedPolicy[msg.sender] == true, \"You need to get a quote before purchasing!\");\r\n        require(_pickPolicy < policies.length, \"Error: Policy does not exist\");\r\n        require(balances[owner] >= policies[_pickPolicy].premiumAmount, \"Error: Insufficient funds\");\r\n\r\n        balances[owner] -= policies[_pickPolicy].premiumAmount;\r\n        emit PolicyPurchased(msg.sender, _pickPolicy, policies[_pickPolicy].premiumAmount);\r\n        quotedPolicy[msg.sender] = false;\r\n        activePolicy[msg.sender] = true;\r\n\r\n    }\r\n    \r\n    function cancelPolicy(uint256 _policySelection) public {\r\n        require(activePolicy[msg.sender] == true, \"The policy needs to be active!\");\r\n        require(_policySelection < policies.length, \"Error: Policy does not exist\");\r\n\r\n        uint256 premiumAmountToRefund = policies[_policySelection].premiumAmount;\r\n        activePolicy[msg.sender] = false;\r\n        balances[owner] += premiumAmountToRefund;\r\n        emit PolicyCanceled(msg.sender, _policySelection, premiumAmountToRefund);\r\n}\r\n\r\n\r\n    function fileComplain(string memory _complaintIssue, string memory _explanation) public {\r\n        require(activePolicy[msg.sender], \"You need to purchase a policy to make a complaint!\");\r\n\r\n        ClaimInfo memory newComplaint = ClaimInfo({\r\n            customer: msg.sender,\r\n            coverageType: policies[policies.length - 1].coverageType, \r\n            claimComplaint: ClaimComplaint.Other  \r\n        });\r\n\r\n        complaint.push(newComplaint);\r\n        emit ClaimFiled(msg.sender, _complaintIssue, _explanation);\r\n\r\n    }\r\n\r\n    receive() external payable {\r\n        revert(\"This contract does not accept direct payments\");\r\n    }\r\n}\r\n\r\n",
  "sourcePath": "C:\\Users\\ADMIN\\Insurance\\contracts\\Insurance.sol",
  "compiler": {
    "name": "solc",
    "version": "0.8.21+commit.d9974bed.Emscripten.clang"
  },
  "schemaVersion": "3.4.16",
  "updatedAt": "2023-10-26T01:08:01.957Z",
  "networkType": "ethereum",
  "devdoc": {
    "kind": "dev",
    "methods": {},
    "version": 1
  },
  "userdoc": {
    "kind": "user",
    "methods": {},
    "version": 1
  }
}