{
  "contractName": "Forging",
  "abi": [
    {
      "anonymous": false,
      "inputs": [
        {
          "indexed": true,
          "internalType": "address",
          "name": "previousOwner",
          "type": "address"
        },
        {
          "indexed": true,
          "internalType": "address",
          "name": "newOwner",
          "type": "address"
        }
      ],
      "name": "OwnershipTransferred",
      "type": "event"
    },
    {
      "inputs": [],
      "name": "owner",
      "outputs": [
        {
          "internalType": "address",
          "name": "",
          "type": "address"
        }
      ],
      "stateMutability": "view",
      "type": "function",
      "constant": true
    },
    {
      "inputs": [],
      "name": "renounceOwnership",
      "outputs": [],
      "stateMutability": "nonpayable",
      "type": "function"
    },
    {
      "inputs": [
        {
          "internalType": "address",
          "name": "newOwner",
          "type": "address"
        }
      ],
      "name": "transferOwnership",
      "outputs": [],
      "stateMutability": "nonpayable",
      "type": "function"
    },
    {
      "inputs": [
        {
          "internalType": "address",
          "name": "contractAddress",
          "type": "address"
        }
      ],
      "name": "setERC1155Contract",
      "outputs": [],
      "stateMutability": "nonpayable",
      "type": "function"
    },
    {
      "inputs": [
        {
          "internalType": "uint256",
          "name": "indexId",
          "type": "uint256"
        }
      ],
      "name": "tradeToken",
      "outputs": [],
      "stateMutability": "view",
      "type": "function",
      "constant": true
    },
    {
      "inputs": [
        {
          "internalType": "uint256",
          "name": "indexId",
          "type": "uint256"
        }
      ],
      "name": "burnToken",
      "outputs": [],
      "stateMutability": "nonpayable",
      "type": "function"
    }
  ],
  "bytecode": "0x608060405234801561001057600080fd5b5061002d61002261003260201b60201c565b61003a60201b60201c565b6100fe565b600033905090565b60008060009054906101000a900473ffffffffffffffffffffffffffffffffffffffff169050816000806101000a81548173ffffffffffffffffffffffffffffffffffffffff021916908373ffffffffffffffffffffffffffffffffffffffff1602179055508173ffffffffffffffffffffffffffffffffffffffff168173ffffffffffffffffffffffffffffffffffffffff167f8be0079c531659141344cd1fd0a4f28419497f9722a3daafe3b4186f6b6457e060405160405180910390a35050565b6109d48061010d6000396000f3fe608060405234801561001057600080fd5b50600436106100625760003560e01c80634a76506a14610067578063715018a6146100835780637b47ec1a1461008d5780637ee37ff3146100a95780638da5cb5b146100c5578063f2fde38b146100e3575b600080fd5b610081600480360381019061007c91906106ad565b6100ff565b005b61008b61014b565b005b6100a760048036038101906100a29190610710565b61015f565b005b6100c360048036038101906100be9190610710565b6102d1565b005b6100cd610454565b6040516100da919061074c565b60405180910390f35b6100fd60048036038101906100f891906106ad565b61047d565b005b610107610500565b80600160006101000a81548173ffffffffffffffffffffffffffffffffffffffff021916908373ffffffffffffffffffffffffffffffffffffffff16021790555050565b610153610500565b61015d600061057e565b565b600073ffffffffffffffffffffffffffffffffffffffff16600160009054906101000a900473ffffffffffffffffffffffffffffffffffffffff1673ffffffffffffffffffffffffffffffffffffffff16036101f0576040517f08c379a00000000000000000000000000000000000000000000000000000000081526004016101e7906107ea565b60405180910390fd5b60038110158015610202575060068111155b610241576040517f08c379a000000000000000000000000000000000000000000000000000000000815260040161023890610856565b60405180910390fd5b600160009054906101000a900473ffffffffffffffffffffffffffffffffffffffff1673ffffffffffffffffffffffffffffffffffffffff16636d1b229d826040518263ffffffff1660e01b815260040161029c9190610885565b600060405180830381600087803b1580156102b657600080fd5b505af11580156102ca573d6000803e3d6000fd5b5050505050565b600073ffffffffffffffffffffffffffffffffffffffff16600160009054906101000a900473ffffffffffffffffffffffffffffffffffffffff1673ffffffffffffffffffffffffffffffffffffffff1603610362576040517f08c379a0000000000000000000000000000000000000000000000000000000008152600401610359906107ea565b60405180910390fd5b60038114806103715750600481145b8061037c5750600581145b806103875750600681145b6103c6576040517f08c379a00000000000000000000000000000000000000000000000000000000081526004016103bd90610856565b60405180910390fd5b600160009054906101000a900473ffffffffffffffffffffffffffffffffffffffff1673ffffffffffffffffffffffffffffffffffffffff1663946e4fe2826040518263ffffffff1660e01b81526004016104219190610885565b60006040518083038186803b15801561043957600080fd5b505afa15801561044d573d6000803e3d6000fd5b5050505050565b60008060009054906101000a900473ffffffffffffffffffffffffffffffffffffffff16905090565b610485610500565b600073ffffffffffffffffffffffffffffffffffffffff168173ffffffffffffffffffffffffffffffffffffffff16036104f4576040517f08c379a00000000000000000000000000000000000000000000000000000000081526004016104eb90610912565b60405180910390fd5b6104fd8161057e565b50565b610508610642565b73ffffffffffffffffffffffffffffffffffffffff16610526610454565b73ffffffffffffffffffffffffffffffffffffffff161461057c576040517f08c379a00000000000000000000000000000000000000000000000000000000081526004016105739061097e565b60405180910390fd5b565b60008060009054906101000a900473ffffffffffffffffffffffffffffffffffffffff169050816000806101000a81548173ffffffffffffffffffffffffffffffffffffffff021916908373ffffffffffffffffffffffffffffffffffffffff1602179055508173ffffffffffffffffffffffffffffffffffffffff168173ffffffffffffffffffffffffffffffffffffffff167f8be0079c531659141344cd1fd0a4f28419497f9722a3daafe3b4186f6b6457e060405160405180910390a35050565b600033905090565b600080fd5b600073ffffffffffffffffffffffffffffffffffffffff82169050919050565b600061067a8261064f565b9050919050565b61068a8161066f565b811461069557600080fd5b50565b6000813590506106a781610681565b92915050565b6000602082840312156106c3576106c261064a565b5b60006106d184828501610698565b91505092915050565b6000819050919050565b6106ed816106da565b81146106f857600080fd5b50565b60008135905061070a816106e4565b92915050565b6000602082840312156107265761072561064a565b5b6000610734848285016106fb565b91505092915050565b6107468161066f565b82525050565b6000602082019050610761600083018461073d565b92915050565b600082825260208201905092915050565b7f45524331313535436f6e74726163742061646472657373206973206e6f74207360008201527f6574000000000000000000000000000000000000000000000000000000000000602082015250565b60006107d4602283610767565b91506107df82610778565b604082019050919050565b60006020820190508181036000830152610803816107c7565b9050919050565b7f496e76616c6964204f7074696f6e210000000000000000000000000000000000600082015250565b6000610840600f83610767565b915061084b8261080a565b602082019050919050565b6000602082019050818103600083015261086f81610833565b9050919050565b61087f816106da565b82525050565b600060208201905061089a6000830184610876565b92915050565b7f4f776e61626c653a206e6577206f776e657220697320746865207a65726f206160008201527f6464726573730000000000000000000000000000000000000000000000000000602082015250565b60006108fc602683610767565b9150610907826108a0565b604082019050919050565b6000602082019050818103600083015261092b816108ef565b9050919050565b7f4f776e61626c653a2063616c6c6572206973206e6f7420746865206f776e6572600082015250565b6000610968602083610767565b915061097382610932565b602082019050919050565b600060208201905081810360008301526109978161095b565b905091905056fea2646970667358221220d326db3da44a8bf434625735acbce1d120d34e65be577535e127a5bc363ed27464736f6c634300080d0033",
  "immutableReferences": {},
  "source": "// SPDX-License-Identifier: MIT\r\npragma solidity ^0.8.7;\r\n\r\nimport \"./Token.sol\";\r\nimport \"@openzeppelin/contracts/access/Ownable.sol\";\r\n\r\ncontract Forging is Ownable {\r\n    Token private ERC1155Contract;\r\n\r\n    function setERC1155Contract(address contractAddress) public onlyOwner {\r\n        ERC1155Contract = Token(contractAddress);\r\n    }\r\n\r\n    function tradeToken(uint256 indexId) view external {\r\n        require(address(ERC1155Contract) != address(0), \"ERC1155Contract address is not set\");\r\n        require(indexId == 3 || indexId == 4 || indexId == 5 || indexId == 6, \"Invalid Option!\");\r\n\r\n        ERC1155Contract.mintBurnTokens(indexId);\r\n    }\r\n\r\n    function burnToken(uint256 indexId) external {\r\n        require(address(ERC1155Contract) != address(0), \"ERC1155Contract address is not set\");\r\n        require(indexId >= 3 && indexId <= 6, \"Invalid Option!\");\r\n\r\n        ERC1155Contract.burnTokens(indexId);\r\n    }\r\n}",
  "sourcePath": "C:\\Users\\ADMIN\\Assignments M3\\my-app\\contracts\\Forging.sol",
  "compiler": {
    "name": "solc",
    "version": "0.8.13+commit.abaa5c0e.Emscripten.clang"
  },
  "schemaVersion": "3.4.14",
  "updatedAt": "2023-06-08T22:18:39.076Z",
  "networkType": "ethereum",
  "devdoc": {
    "kind": "dev",
    "methods": {
      "owner()": {
        "details": "Returns the address of the current owner."
      },
      "renounceOwnership()": {
        "details": "Leaves the contract without owner. It will not be possible to call `onlyOwner` functions. Can only be called by the current owner. NOTE: Renouncing ownership will leave the contract without an owner, thereby disabling any functionality that is only available to the owner."
      },
      "transferOwnership(address)": {
        "details": "Transfers ownership of the contract to a new account (`newOwner`). Can only be called by the current owner."
      }
    },
    "version": 1
  },
  "userdoc": {
    "kind": "user",
    "methods": {},
    "version": 1
  }
}