{
  "contractName": "Token",
  "abi": [
    {
      "inputs": [],
      "stateMutability": "nonpayable",
      "type": "constructor"
    },
    {
      "anonymous": false,
      "inputs": [
        {
          "indexed": true,
          "internalType": "address",
          "name": "account",
          "type": "address"
        },
        {
          "indexed": true,
          "internalType": "address",
          "name": "operator",
          "type": "address"
        },
        {
          "indexed": false,
          "internalType": "bool",
          "name": "approved",
          "type": "bool"
        }
      ],
      "name": "ApprovalForAll",
      "type": "event"
    },
    {
      "anonymous": false,
      "inputs": [
        {
          "indexed": true,
          "internalType": "address",
          "name": "operator",
          "type": "address"
        },
        {
          "indexed": true,
          "internalType": "address",
          "name": "from",
          "type": "address"
        },
        {
          "indexed": true,
          "internalType": "address",
          "name": "to",
          "type": "address"
        },
        {
          "indexed": false,
          "internalType": "uint256[]",
          "name": "ids",
          "type": "uint256[]"
        },
        {
          "indexed": false,
          "internalType": "uint256[]",
          "name": "values",
          "type": "uint256[]"
        }
      ],
      "name": "TransferBatch",
      "type": "event"
    },
    {
      "anonymous": false,
      "inputs": [
        {
          "indexed": true,
          "internalType": "address",
          "name": "operator",
          "type": "address"
        },
        {
          "indexed": true,
          "internalType": "address",
          "name": "from",
          "type": "address"
        },
        {
          "indexed": true,
          "internalType": "address",
          "name": "to",
          "type": "address"
        },
        {
          "indexed": false,
          "internalType": "uint256",
          "name": "id",
          "type": "uint256"
        },
        {
          "indexed": false,
          "internalType": "uint256",
          "name": "value",
          "type": "uint256"
        }
      ],
      "name": "TransferSingle",
      "type": "event"
    },
    {
      "anonymous": false,
      "inputs": [
        {
          "indexed": false,
          "internalType": "string",
          "name": "value",
          "type": "string"
        },
        {
          "indexed": true,
          "internalType": "uint256",
          "name": "id",
          "type": "uint256"
        }
      ],
      "name": "URI",
      "type": "event"
    },
    {
      "inputs": [],
      "name": "amountOfToken",
      "outputs": [
        {
          "internalType": "uint256",
          "name": "",
          "type": "uint256"
        }
      ],
      "stateMutability": "view",
      "type": "function"
    },
    {
      "inputs": [
        {
          "internalType": "address",
          "name": "account",
          "type": "address"
        },
        {
          "internalType": "uint256",
          "name": "id",
          "type": "uint256"
        }
      ],
      "name": "balanceOf",
      "outputs": [
        {
          "internalType": "uint256",
          "name": "",
          "type": "uint256"
        }
      ],
      "stateMutability": "view",
      "type": "function"
    },
    {
      "inputs": [
        {
          "internalType": "address[]",
          "name": "accounts",
          "type": "address[]"
        },
        {
          "internalType": "uint256[]",
          "name": "ids",
          "type": "uint256[]"
        }
      ],
      "name": "balanceOfBatch",
      "outputs": [
        {
          "internalType": "uint256[]",
          "name": "",
          "type": "uint256[]"
        }
      ],
      "stateMutability": "view",
      "type": "function"
    },
    {
      "inputs": [
        {
          "internalType": "address",
          "name": "account",
          "type": "address"
        },
        {
          "internalType": "address",
          "name": "operator",
          "type": "address"
        }
      ],
      "name": "isApprovedForAll",
      "outputs": [
        {
          "internalType": "bool",
          "name": "",
          "type": "bool"
        }
      ],
      "stateMutability": "view",
      "type": "function"
    },
    {
      "inputs": [
        {
          "internalType": "address",
          "name": "from",
          "type": "address"
        },
        {
          "internalType": "address",
          "name": "to",
          "type": "address"
        },
        {
          "internalType": "uint256[]",
          "name": "ids",
          "type": "uint256[]"
        },
        {
          "internalType": "uint256[]",
          "name": "amounts",
          "type": "uint256[]"
        },
        {
          "internalType": "bytes",
          "name": "data",
          "type": "bytes"
        }
      ],
      "name": "safeBatchTransferFrom",
      "outputs": [],
      "stateMutability": "nonpayable",
      "type": "function"
    },
    {
      "inputs": [
        {
          "internalType": "address",
          "name": "from",
          "type": "address"
        },
        {
          "internalType": "address",
          "name": "to",
          "type": "address"
        },
        {
          "internalType": "uint256",
          "name": "id",
          "type": "uint256"
        },
        {
          "internalType": "uint256",
          "name": "amount",
          "type": "uint256"
        },
        {
          "internalType": "bytes",
          "name": "data",
          "type": "bytes"
        }
      ],
      "name": "safeTransferFrom",
      "outputs": [],
      "stateMutability": "nonpayable",
      "type": "function"
    },
    {
      "inputs": [
        {
          "internalType": "address",
          "name": "operator",
          "type": "address"
        },
        {
          "internalType": "bool",
          "name": "approved",
          "type": "bool"
        }
      ],
      "name": "setApprovalForAll",
      "outputs": [],
      "stateMutability": "nonpayable",
      "type": "function"
    },
    {
      "inputs": [
        {
          "internalType": "bytes4",
          "name": "interfaceId",
          "type": "bytes4"
        }
      ],
      "name": "supportsInterface",
      "outputs": [
        {
          "internalType": "bool",
          "name": "",
          "type": "bool"
        }
      ],
      "stateMutability": "view",
      "type": "function"
    },
    {
      "inputs": [
        {
          "internalType": "uint256",
          "name": "",
          "type": "uint256"
        }
      ],
      "name": "uri",
      "outputs": [
        {
          "internalType": "string",
          "name": "",
          "type": "string"
        }
      ],
      "stateMutability": "view",
      "type": "function"
    },
    {
      "inputs": [
        {
          "internalType": "uint256",
          "name": "tokenId",
          "type": "uint256"
        }
      ],
      "name": "mintToken",
      "outputs": [],
      "stateMutability": "nonpayable",
      "type": "function"
    },
    {
      "inputs": [
        {
          "internalType": "uint256",
          "name": "tokenId",
          "type": "uint256"
        }
      ],
      "name": "mintTokens",
      "outputs": [],
      "stateMutability": "nonpayable",
      "type": "function"
    },
    {
      "inputs": [
        {
          "internalType": "uint256",
          "name": "tokenId",
          "type": "uint256"
        }
      ],
      "name": "forgingBurn",
      "outputs": [],
      "stateMutability": "nonpayable",
      "type": "function"
    },
    {
      "inputs": [
        {
          "internalType": "uint256",
          "name": "tokenId",
          "type": "uint256"
        }
      ],
      "name": "tradeForToken",
      "outputs": [],
      "stateMutability": "nonpayable",
      "type": "function"
    }
  ],
  "bytecode": "0x60806040526007600355603c6004553480156200001b57600080fd5b50604051806020016040528060008152506200003d816200004460201b60201c565b5062000174565b80600290805190602001906200005c92919062000060565b5050565b8280546200006e906200013f565b90600052602060002090601f016020900481019282620000925760008555620000de565b82601f10620000ad57805160ff1916838001178555620000de565b82800160010185558215620000de579182015b82811115620000dd578251825591602001919060010190620000c0565b5b509050620000ed9190620000f1565b5090565b5b808211156200010c576000816000905550600101620000f2565b5090565b7f4e487b7100000000000000000000000000000000000000000000000000000000600052602260045260246000fd5b600060028204905060018216806200015857607f821691505b6020821081036200016e576200016d62000110565b5b50919050565b61322e80620001846000396000f3fe608060405234801561001057600080fd5b50600436106100ce5760003560e01c80634e1273f41161008c578063b6fa01ae11610066578063b6fa01ae14610221578063c634d0321461023d578063e985e9c514610259578063f242432a14610289576100ce565b80634e1273f4146101b957806397304ced146101e9578063a22cb46514610205576100ce565b8062fdd58e146100d357806301ffc9a7146101035780630e89341c146101335780632eb2c2d6146101635780634300e5f01461017f5780634652146f1461019b575b600080fd5b6100ed60048036038101906100e89190611c9e565b6102a5565b6040516100fa9190611ced565b60405180910390f35b61011d60048036038101906101189190611d60565b61036d565b60405161012a9190611da8565b60405180910390f35b61014d60048036038101906101489190611dc3565b61044f565b60405161015a9190611e89565b60405180910390f35b61017d600480360381019061017891906120a8565b6104e3565b005b61019960048036038101906101949190611dc3565b610584565b005b6101a361067a565b6040516101b09190611ced565b60405180910390f35b6101d360048036038101906101ce919061223a565b610680565b6040516101e09190612370565b60405180910390f35b61020360048036038101906101fe9190611dc3565b610799565b005b61021f600480360381019061021a91906123be565b610941565b005b61023b60048036038101906102369190611dc3565b610957565b005b61025760048036038101906102529190611dc3565b6109eb565b005b610273600480360381019061026e91906123fe565b610ad6565b6040516102809190611da8565b60405180910390f35b6102a3600480360381019061029e919061243e565b610b6a565b005b60008073ffffffffffffffffffffffffffffffffffffffff168373ffffffffffffffffffffffffffffffffffffffff1603610315576040517f08c379a000000000000000000000000000000000000000000000000000000000815260040161030c90612547565b60405180910390fd5b60008083815260200190815260200160002060008473ffffffffffffffffffffffffffffffffffffffff1673ffffffffffffffffffffffffffffffffffffffff16815260200190815260200160002054905092915050565b60007fd9b67a26000000000000000000000000000000000000000000000000000000007bffffffffffffffffffffffffffffffffffffffffffffffffffffffff1916827bffffffffffffffffffffffffffffffffffffffffffffffffffffffff1916148061043857507f0e89341c000000000000000000000000000000000000000000000000000000007bffffffffffffffffffffffffffffffffffffffffffffffffffffffff1916827bffffffffffffffffffffffffffffffffffffffffffffffffffffffff1916145b80610448575061044782610c0b565b5b9050919050565b60606002805461045e90612596565b80601f016020809104026020016040519081016040528092919081815260200182805461048a90612596565b80156104d75780601f106104ac576101008083540402835291602001916104d7565b820191906000526020600020905b8154815290600101906020018083116104ba57829003601f168201915b50505050509050919050565b6104eb610c75565b73ffffffffffffffffffffffffffffffffffffffff168573ffffffffffffffffffffffffffffffffffffffff16148061053157506105308561052b610c75565b610ad6565b5b610570576040517f08c379a000000000000000000000000000000000000000000000000000000000815260040161056790612639565b60405180910390fd5b61057d8585858585610c7d565b5050505050565b60038110158015610596575060068111155b6105d5576040517f08c379a00000000000000000000000000000000000000000000000000000000081526004016105cc906126cb565b60405180910390fd5b600381036105ee576105e933826001610f9e565b610677565b600481036106075761060233826001610f9e565b610676565b600581036106205761061b33826001610f9e565b610675565b600681036106395761063433826001610f9e565b610674565b6040517f08c379a000000000000000000000000000000000000000000000000000000000815260040161066b90612737565b60405180910390fd5b5b5b5b50565b60035481565b606081518351146106c6576040517f08c379a00000000000000000000000000000000000000000000000000000000081526004016106bd906127c9565b60405180910390fd5b6000835167ffffffffffffffff8111156106e3576106e2611eb0565b5b6040519080825280602002602001820160405280156107115781602001602082028036833780820191505090505b50905060005b845181101561078e5761075e858281518110610736576107356127e9565b5b6020026020010151858381518110610751576107506127e9565b5b60200260200101516102a5565b828281518110610771576107706127e9565b5b6020026020010181815250508061078790612847565b9050610717565b508091505092915050565b600381101580156107ab575060068111155b6107ea576040517f08c379a00000000000000000000000000000000000000000000000000000000081526004016107e1906128db565b60405180910390fd5b6003810361082c5761080e33826001604051806020016040528060008152506111e4565b61081b3360006001610f9e565b61082733600180610f9e565b61093e565b6004810361086e5761085033826001604051806020016040528060008152506111e4565b61085c33600180610f9e565b6108693360026001610f9e565b61093d565b600581036108b15761089233826001604051806020016040528060008152506111e4565b61089f3360006001610f9e565b6108ac3360026001610f9e565b61093c565b60068103610900576108d533826001604051806020016040528060008152506111e4565b6108e23360006001610f9e565b6108ee33600180610f9e565b6108fb3360026001610f9e565b61093b565b6040517f08c379a000000000000000000000000000000000000000000000000000000000815260040161093290612947565b60405180910390fd5b5b5b5b50565b61095361094c610c75565b8383611394565b5050565b60008110158015610969575060028111155b6109a8576040517f08c379a000000000000000000000000000000000000000000000000000000000815260040161099f906128db565b60405180910390fd5b6109b433826001610f9e565b6109d033826001604051806020016040528060008152506111e4565b42600560008381526020019081526020016000208190555050565b600081101580156109fd575060028111155b610a3c576040517f08c379a0000000000000000000000000000000000000000000000000000000008152600401610a33906128db565b60405180910390fd5b6004546005600083815260200190815260200160002054610a5d9190612967565b421015610a9f576040517f08c379a0000000000000000000000000000000000000000000000000000000008152600401610a9690612a2f565b60405180910390fd5b610abb33826001604051806020016040528060008152506111e4565b42600560008381526020019081526020016000208190555050565b6000600160008473ffffffffffffffffffffffffffffffffffffffff1673ffffffffffffffffffffffffffffffffffffffff16815260200190815260200160002060008373ffffffffffffffffffffffffffffffffffffffff1673ffffffffffffffffffffffffffffffffffffffff16815260200190815260200160002060009054906101000a900460ff16905092915050565b610b72610c75565b73ffffffffffffffffffffffffffffffffffffffff168573ffffffffffffffffffffffffffffffffffffffff161480610bb85750610bb785610bb2610c75565b610ad6565b5b610bf7576040517f08c379a0000000000000000000000000000000000000000000000000000000008152600401610bee90612639565b60405180910390fd5b610c048585858585611500565b5050505050565b60007f01ffc9a7000000000000000000000000000000000000000000000000000000007bffffffffffffffffffffffffffffffffffffffffffffffffffffffff1916827bffffffffffffffffffffffffffffffffffffffffffffffffffffffff1916149050919050565b600033905090565b8151835114610cc1576040517f08c379a0000000000000000000000000000000000000000000000000000000008152600401610cb890612ac1565b60405180910390fd5b600073ffffffffffffffffffffffffffffffffffffffff168473ffffffffffffffffffffffffffffffffffffffff1603610d30576040517f08c379a0000000000000000000000000000000000000000000000000000000008152600401610d2790612b53565b60405180910390fd5b6000610d3a610c75565b9050610d4a81878787878761179b565b60005b8451811015610efb576000858281518110610d6b57610d6a6127e9565b5b602002602001015190506000858381518110610d8a57610d896127e9565b5b60200260200101519050600080600084815260200190815260200160002060008b73ffffffffffffffffffffffffffffffffffffffff1673ffffffffffffffffffffffffffffffffffffffff16815260200190815260200160002054905081811015610e2b576040517f08c379a0000000000000000000000000000000000000000000000000000000008152600401610e2290612be5565b60405180910390fd5b81810360008085815260200190815260200160002060008c73ffffffffffffffffffffffffffffffffffffffff1673ffffffffffffffffffffffffffffffffffffffff168152602001908152602001600020819055508160008085815260200190815260200160002060008b73ffffffffffffffffffffffffffffffffffffffff1673ffffffffffffffffffffffffffffffffffffffff1681526020019081526020016000206000828254610ee09190612967565b9250508190555050505080610ef490612847565b9050610d4d565b508473ffffffffffffffffffffffffffffffffffffffff168673ffffffffffffffffffffffffffffffffffffffff168273ffffffffffffffffffffffffffffffffffffffff167f4a39dc06d4c0dbc64b70af90fd698a233a518aa5d07e595d983b8c0526c8f7fb8787604051610f72929190612c05565b60405180910390a4610f888187878787876117a3565b610f968187878787876117ab565b505050505050565b600073ffffffffffffffffffffffffffffffffffffffff168373ffffffffffffffffffffffffffffffffffffffff160361100d576040517f08c379a000000000000000000000000000000000000000000000000000000000815260040161100490612cae565b60405180910390fd5b6000611017610c75565b9050600061102484611982565b9050600061103184611982565b90506110518387600085856040518060200160405280600081525061179b565b600080600087815260200190815260200160002060008873ffffffffffffffffffffffffffffffffffffffff1673ffffffffffffffffffffffffffffffffffffffff168152602001908152602001600020549050848110156110e8576040517f08c379a00000000000000000000000000000000000000000000000000000000081526004016110df90612d40565b60405180910390fd5b84810360008088815260200190815260200160002060008973ffffffffffffffffffffffffffffffffffffffff1673ffffffffffffffffffffffffffffffffffffffff16815260200190815260200160002081905550600073ffffffffffffffffffffffffffffffffffffffff168773ffffffffffffffffffffffffffffffffffffffff168573ffffffffffffffffffffffffffffffffffffffff167fc3d58168c5ae7397731d063d5bbf3d657854427343f4c083240f7aacaa2d0f6289896040516111b5929190612d60565b60405180910390a46111db848860008686604051806020016040528060008152506117a3565b50505050505050565b600073ffffffffffffffffffffffffffffffffffffffff168473ffffffffffffffffffffffffffffffffffffffff1603611253576040517f08c379a000000000000000000000000000000000000000000000000000000000815260040161124a90612dfb565b60405180910390fd5b600061125d610c75565b9050600061126a85611982565b9050600061127785611982565b90506112888360008985858961179b565b8460008088815260200190815260200160002060008973ffffffffffffffffffffffffffffffffffffffff1673ffffffffffffffffffffffffffffffffffffffff16815260200190815260200160002060008282546112e79190612967565b925050819055508673ffffffffffffffffffffffffffffffffffffffff16600073ffffffffffffffffffffffffffffffffffffffff168473ffffffffffffffffffffffffffffffffffffffff167fc3d58168c5ae7397731d063d5bbf3d657854427343f4c083240f7aacaa2d0f628989604051611365929190612d60565b60405180910390a461137c836000898585896117a3565b61138b836000898989896119fc565b50505050505050565b8173ffffffffffffffffffffffffffffffffffffffff168373ffffffffffffffffffffffffffffffffffffffff1603611402576040517f08c379a00000000000000000000000000000000000000000000000000000000081526004016113f990612e8d565b60405180910390fd5b80600160008573ffffffffffffffffffffffffffffffffffffffff1673ffffffffffffffffffffffffffffffffffffffff16815260200190815260200160002060008473ffffffffffffffffffffffffffffffffffffffff1673ffffffffffffffffffffffffffffffffffffffff16815260200190815260200160002060006101000a81548160ff0219169083151502179055508173ffffffffffffffffffffffffffffffffffffffff168373ffffffffffffffffffffffffffffffffffffffff167f17307eab39ab6107e8899845ad3d59bd9653f200f220920489ca2b5937696c31836040516114f39190611da8565b60405180910390a3505050565b600073ffffffffffffffffffffffffffffffffffffffff168473ffffffffffffffffffffffffffffffffffffffff160361156f576040517f08c379a000000000000000000000000000000000000000000000000000000000815260040161156690612b53565b60405180910390fd5b6000611579610c75565b9050600061158685611982565b9050600061159385611982565b90506115a383898985858961179b565b600080600088815260200190815260200160002060008a73ffffffffffffffffffffffffffffffffffffffff1673ffffffffffffffffffffffffffffffffffffffff1681526020019081526020016000205490508581101561163a576040517f08c379a000000000000000000000000000000000000000000000000000000000815260040161163190612be5565b60405180910390fd5b85810360008089815260200190815260200160002060008b73ffffffffffffffffffffffffffffffffffffffff1673ffffffffffffffffffffffffffffffffffffffff168152602001908152602001600020819055508560008089815260200190815260200160002060008a73ffffffffffffffffffffffffffffffffffffffff1673ffffffffffffffffffffffffffffffffffffffff16815260200190815260200160002060008282546116ef9190612967565b925050819055508773ffffffffffffffffffffffffffffffffffffffff168973ffffffffffffffffffffffffffffffffffffffff168573ffffffffffffffffffffffffffffffffffffffff167fc3d58168c5ae7397731d063d5bbf3d657854427343f4c083240f7aacaa2d0f628a8a60405161176c929190612d60565b60405180910390a4611782848a8a86868a6117a3565b611790848a8a8a8a8a6119fc565b505050505050505050565b505050505050565b505050505050565b6117ca8473ffffffffffffffffffffffffffffffffffffffff16611bd3565b1561197a578373ffffffffffffffffffffffffffffffffffffffff1663bc197c8187878686866040518663ffffffff1660e01b8152600401611810959493929190612f11565b6020604051808303816000875af192505050801561184c57506040513d601f19601f820116820180604052508101906118499190612f8e565b60015b6118f157611858612fc8565b806308c379a0036118b4575061186c612fea565b8061187757506118b6565b806040517f08c379a00000000000000000000000000000000000000000000000000000000081526004016118ab9190611e89565b60405180910390fd5b505b6040517f08c379a00000000000000000000000000000000000000000000000000000000081526004016118e8906130ec565b60405180910390fd5b63bc197c8160e01b7bffffffffffffffffffffffffffffffffffffffffffffffffffffffff1916817bffffffffffffffffffffffffffffffffffffffffffffffffffffffff191614611978576040517f08c379a000000000000000000000000000000000000000000000000000000000815260040161196f9061317e565b60405180910390fd5b505b505050505050565b60606000600167ffffffffffffffff8111156119a1576119a0611eb0565b5b6040519080825280602002602001820160405280156119cf5781602001602082028036833780820191505090505b50905082816000815181106119e7576119e66127e9565b5b60200260200101818152505080915050919050565b611a1b8473ffffffffffffffffffffffffffffffffffffffff16611bd3565b15611bcb578373ffffffffffffffffffffffffffffffffffffffff1663f23a6e6187878686866040518663ffffffff1660e01b8152600401611a6195949392919061319e565b6020604051808303816000875af1925050508015611a9d57506040513d601f19601f82011682018060405250810190611a9a9190612f8e565b60015b611b4257611aa9612fc8565b806308c379a003611b055750611abd612fea565b80611ac85750611b07565b806040517f08c379a0000000000000000000000000000000000000000000000000000000008152600401611afc9190611e89565b60405180910390fd5b505b6040517f08c379a0000000000000000000000000000000000000000000000000000000008152600401611b39906130ec565b60405180910390fd5b63f23a6e6160e01b7bffffffffffffffffffffffffffffffffffffffffffffffffffffffff1916817bffffffffffffffffffffffffffffffffffffffffffffffffffffffff191614611bc9576040517f08c379a0000000000000000000000000000000000000000000000000000000008152600401611bc09061317e565b60405180910390fd5b505b505050505050565b6000808273ffffffffffffffffffffffffffffffffffffffff163b119050919050565b6000604051905090565b600080fd5b600080fd5b600073ffffffffffffffffffffffffffffffffffffffff82169050919050565b6000611c3582611c0a565b9050919050565b611c4581611c2a565b8114611c5057600080fd5b50565b600081359050611c6281611c3c565b92915050565b6000819050919050565b611c7b81611c68565b8114611c8657600080fd5b50565b600081359050611c9881611c72565b92915050565b60008060408385031215611cb557611cb4611c00565b5b6000611cc385828601611c53565b9250506020611cd485828601611c89565b9150509250929050565b611ce781611c68565b82525050565b6000602082019050611d026000830184611cde565b92915050565b60007fffffffff0000000000000000000000000000000000000000000000000000000082169050919050565b611d3d81611d08565b8114611d4857600080fd5b50565b600081359050611d5a81611d34565b92915050565b600060208284031215611d7657611d75611c00565b5b6000611d8484828501611d4b565b91505092915050565b60008115159050919050565b611da281611d8d565b82525050565b6000602082019050611dbd6000830184611d99565b92915050565b600060208284031215611dd957611dd8611c00565b5b6000611de784828501611c89565b91505092915050565b600081519050919050565b600082825260208201905092915050565b60005b83811015611e2a578082015181840152602081019050611e0f565b83811115611e39576000848401525b50505050565b6000601f19601f8301169050919050565b6000611e5b82611df0565b611e658185611dfb565b9350611e75818560208601611e0c565b611e7e81611e3f565b840191505092915050565b60006020820190508181036000830152611ea38184611e50565b905092915050565b600080fd5b7f4e487b7100000000000000000000000000000000000000000000000000000000600052604160045260246000fd5b611ee882611e3f565b810181811067ffffffffffffffff82111715611f0757611f06611eb0565b5b80604052505050565b6000611f1a611bf6565b9050611f268282611edf565b919050565b600067ffffffffffffffff821115611f4657611f45611eb0565b5b602082029050602081019050919050565b600080fd5b6000611f6f611f6a84611f2b565b611f10565b90508083825260208201905060208402830185811115611f9257611f91611f57565b5b835b81811015611fbb5780611fa78882611c89565b845260208401935050602081019050611f94565b5050509392505050565b600082601f830112611fda57611fd9611eab565b5b8135611fea848260208601611f5c565b91505092915050565b600080fd5b600067ffffffffffffffff82111561201357612012611eb0565b5b61201c82611e3f565b9050602081019050919050565b82818337600083830152505050565b600061204b61204684611ff8565b611f10565b90508281526020810184848401111561206757612066611ff3565b5b612072848285612029565b509392505050565b600082601f83011261208f5761208e611eab565b5b813561209f848260208601612038565b91505092915050565b600080600080600060a086880312156120c4576120c3611c00565b5b60006120d288828901611c53565b95505060206120e388828901611c53565b945050604086013567ffffffffffffffff81111561210457612103611c05565b5b61211088828901611fc5565b935050606086013567ffffffffffffffff81111561213157612130611c05565b5b61213d88828901611fc5565b925050608086013567ffffffffffffffff81111561215e5761215d611c05565b5b61216a8882890161207a565b9150509295509295909350565b600067ffffffffffffffff82111561219257612191611eb0565b5b602082029050602081019050919050565b60006121b66121b184612177565b611f10565b905080838252602082019050602084028301858111156121d9576121d8611f57565b5b835b8181101561220257806121ee8882611c53565b8452602084019350506020810190506121db565b5050509392505050565b600082601f83011261222157612220611eab565b5b81356122318482602086016121a3565b91505092915050565b6000806040838503121561225157612250611c00565b5b600083013567ffffffffffffffff81111561226f5761226e611c05565b5b61227b8582860161220c565b925050602083013567ffffffffffffffff81111561229c5761229b611c05565b5b6122a885828601611fc5565b9150509250929050565b600081519050919050565b600082825260208201905092915050565b6000819050602082019050919050565b6122e781611c68565b82525050565b60006122f983836122de565b60208301905092915050565b6000602082019050919050565b600061231d826122b2565b61232781856122bd565b9350612332836122ce565b8060005b8381101561236357815161234a88826122ed565b975061235583612305565b925050600181019050612336565b5085935050505092915050565b6000602082019050818103600083015261238a8184612312565b905092915050565b61239b81611d8d565b81146123a657600080fd5b50565b6000813590506123b881612392565b92915050565b600080604083850312156123d5576123d4611c00565b5b60006123e385828601611c53565b92505060206123f4858286016123a9565b9150509250929050565b6000806040838503121561241557612414611c00565b5b600061242385828601611c53565b925050602061243485828601611c53565b9150509250929050565b600080600080600060a0868803121561245a57612459611c00565b5b600061246888828901611c53565b955050602061247988828901611c53565b945050604061248a88828901611c89565b935050606061249b88828901611c89565b925050608086013567ffffffffffffffff8111156124bc576124bb611c05565b5b6124c88882890161207a565b9150509295509295909350565b7f455243313135353a2061646472657373207a65726f206973206e6f742061207660008201527f616c6964206f776e657200000000000000000000000000000000000000000000602082015250565b6000612531602a83611dfb565b915061253c826124d5565b604082019050919050565b6000602082019050818103600083015261256081612524565b9050919050565b7f4e487b7100000000000000000000000000000000000000000000000000000000600052602260045260246000fd5b600060028204905060018216806125ae57607f821691505b6020821081036125c1576125c0612567565b5b50919050565b7f455243313135353a2063616c6c6572206973206e6f7420746f6b656e206f776e60008201527f6572206f7220617070726f766564000000000000000000000000000000000000602082015250565b6000612623602e83611dfb565b915061262e826125c7565b604082019050919050565b6000602082019050818103600083015261265281612616565b9050919050565b7f496e76616c696420696e7075742c207069636b206265747765656e20332c203460008201527f2c20352c206f7220360000000000000000000000000000000000000000000000602082015250565b60006126b5602983611dfb565b91506126c082612659565b604082019050919050565b600060208201905081810360008301526126e4816126a8565b9050919050565b7f496e636f72726563742053656c656374696f6e21000000000000000000000000600082015250565b6000612721601483611dfb565b915061272c826126eb565b602082019050919050565b6000602082019050818103600083015261275081612714565b9050919050565b7f455243313135353a206163636f756e747320616e6420696473206c656e67746860008201527f206d69736d617463680000000000000000000000000000000000000000000000602082015250565b60006127b3602983611dfb565b91506127be82612757565b604082019050919050565b600060208201905081810360008301526127e2816127a6565b9050919050565b7f4e487b7100000000000000000000000000000000000000000000000000000000600052603260045260246000fd5b7f4e487b7100000000000000000000000000000000000000000000000000000000600052601160045260246000fd5b600061285282611c68565b91507fffffffffffffffffffffffffffffffffffffffffffffffffffffffffffffffff820361288457612883612818565b5b600182019050919050565b7f746f6b656e4964206973206f7574206f662072616e6765000000000000000000600082015250565b60006128c5601783611dfb565b91506128d08261288f565b602082019050919050565b600060208201905081810360008301526128f4816128b8565b9050919050565b7f496e636f7272656374204f7074696f6e21000000000000000000000000000000600082015250565b6000612931601183611dfb565b915061293c826128fb565b602082019050919050565b6000602082019050818103600083015261296081612924565b9050919050565b600061297282611c68565b915061297d83611c68565b9250827fffffffffffffffffffffffffffffffffffffffffffffffffffffffffffffffff038211156129b2576129b1612818565b5b828201905092915050565b7f596f75206e65656420746f207761697420666f722074686520636f6f6c646f7760008201527f6e20706572696f64210000000000000000000000000000000000000000000000602082015250565b6000612a19602983611dfb565b9150612a24826129bd565b604082019050919050565b60006020820190508181036000830152612a4881612a0c565b9050919050565b7f455243313135353a2069647320616e6420616d6f756e7473206c656e6774682060008201527f6d69736d61746368000000000000000000000000000000000000000000000000602082015250565b6000612aab602883611dfb565b9150612ab682612a4f565b604082019050919050565b60006020820190508181036000830152612ada81612a9e565b9050919050565b7f455243313135353a207472616e7366657220746f20746865207a65726f20616460008201527f6472657373000000000000000000000000000000000000000000000000000000602082015250565b6000612b3d602583611dfb565b9150612b4882612ae1565b604082019050919050565b60006020820190508181036000830152612b6c81612b30565b9050919050565b7f455243313135353a20696e73756666696369656e742062616c616e636520666f60008201527f72207472616e7366657200000000000000000000000000000000000000000000602082015250565b6000612bcf602a83611dfb565b9150612bda82612b73565b604082019050919050565b60006020820190508181036000830152612bfe81612bc2565b9050919050565b60006040820190508181036000830152612c1f8185612312565b90508181036020830152612c338184612312565b90509392505050565b7f455243313135353a206275726e2066726f6d20746865207a65726f206164647260008201527f6573730000000000000000000000000000000000000000000000000000000000602082015250565b6000612c98602383611dfb565b9150612ca382612c3c565b604082019050919050565b60006020820190508181036000830152612cc781612c8b565b9050919050565b7f455243313135353a206275726e20616d6f756e7420657863656564732062616c60008201527f616e636500000000000000000000000000000000000000000000000000000000602082015250565b6000612d2a602483611dfb565b9150612d3582612cce565b604082019050919050565b60006020820190508181036000830152612d5981612d1d565b9050919050565b6000604082019050612d756000830185611cde565b612d826020830184611cde565b9392505050565b7f455243313135353a206d696e7420746f20746865207a65726f2061646472657360008201527f7300000000000000000000000000000000000000000000000000000000000000602082015250565b6000612de5602183611dfb565b9150612df082612d89565b604082019050919050565b60006020820190508181036000830152612e1481612dd8565b9050919050565b7f455243313135353a2073657474696e6720617070726f76616c2073746174757360008201527f20666f722073656c660000000000000000000000000000000000000000000000602082015250565b6000612e77602983611dfb565b9150612e8282612e1b565b604082019050919050565b60006020820190508181036000830152612ea681612e6a565b9050919050565b612eb681611c2a565b82525050565b600081519050919050565b600082825260208201905092915050565b6000612ee382612ebc565b612eed8185612ec7565b9350612efd818560208601611e0c565b612f0681611e3f565b840191505092915050565b600060a082019050612f266000830188612ead565b612f336020830187612ead565b8181036040830152612f458186612312565b90508181036060830152612f598185612312565b90508181036080830152612f6d8184612ed8565b90509695505050505050565b600081519050612f8881611d34565b92915050565b600060208284031215612fa457612fa3611c00565b5b6000612fb284828501612f79565b91505092915050565b60008160e01c9050919050565b600060033d1115612fe75760046000803e612fe4600051612fbb565b90505b90565b600060443d1061307757612ffc611bf6565b60043d036004823e80513d602482011167ffffffffffffffff82111715613024575050613077565b808201805167ffffffffffffffff8111156130425750505050613077565b80602083010160043d03850181111561305f575050505050613077565b61306e82602001850186611edf565b82955050505050505b90565b7f455243313135353a207472616e7366657220746f206e6f6e2d4552433131353560008201527f526563656976657220696d706c656d656e746572000000000000000000000000602082015250565b60006130d6603483611dfb565b91506130e18261307a565b604082019050919050565b60006020820190508181036000830152613105816130c9565b9050919050565b7f455243313135353a204552433131353552656365697665722072656a6563746560008201527f6420746f6b656e73000000000000000000000000000000000000000000000000602082015250565b6000613168602883611dfb565b91506131738261310c565b604082019050919050565b600060208201905081810360008301526131978161315b565b9050919050565b600060a0820190506131b36000830188612ead565b6131c06020830187612ead565b6131cd6040830186611cde565b6131da6060830185611cde565b81810360808301526131ec8184612ed8565b9050969550505050505056fea26469706673582212202f282fd80f581ff030c64be1fbe5aebb494ca153e188818fcc021ab8b0b2f4be64736f6c634300080d0033",
  "immutableReferences": {},
  "source": "// SPDX-License-Identifier: MIT\r\npragma solidity ^0.8.7;\r\n\r\nimport \"@openzeppelin/contracts/token/ERC1155/ERC1155.sol\";\r\n\r\ncontract Token is ERC1155 {\r\n    uint256 public amountOfToken = 7;\r\n    uint256 private coolDownTimer = 60 seconds;\r\n    mapping(uint256 => uint256) private lastMintTime;\r\n\r\n    constructor() ERC1155(\"\") {}\r\n\r\n    function mintToken(uint256 tokenId) public {\r\n        require(tokenId >= 0 && tokenId <= 2, \"tokenId is out of range\");\r\n        require(block.timestamp >= lastMintTime[tokenId] + coolDownTimer, \"You need to wait for the cooldown period!\");\r\n\r\n        _mint(msg.sender, tokenId, 1, \"\");\r\n        lastMintTime[tokenId] = block.timestamp;\r\n\r\n    }\r\n\r\n    function mintTokens(uint256 tokenId) public {\r\n        require(tokenId >= 3  && tokenId <= 6, \"tokenId is out of range\");\r\n\r\n        if (tokenId == 3) {\r\n            _mint(msg.sender, tokenId, 1, \"\");\r\n            _burn(msg.sender, 0, 1);\r\n            _burn(msg.sender, 1, 1);\r\n        } else if (tokenId == 4) {\r\n            _mint(msg.sender, tokenId, 1, \"\");\r\n            _burn(msg.sender, 1, 1);\r\n            _burn(msg.sender, 2, 1);\r\n        } else if (tokenId == 5) {\r\n            _mint(msg.sender, tokenId, 1, \"\");\r\n            _burn(msg.sender, 0, 1);\r\n            _burn(msg.sender, 2, 1);\r\n        } else if (tokenId == 6) {\r\n            _mint(msg.sender, tokenId, 1, \"\");\r\n            _burn(msg.sender, 0, 1);\r\n            _burn(msg.sender, 1, 1);\r\n            _burn(msg.sender, 2, 1);\r\n        } else {\r\n            revert(\"Incorrect Option!\");\r\n        }\r\n    }\r\n\r\n    function forgingBurn(uint256 tokenId) external {\r\n        require(tokenId >= 3 && tokenId <= 6, \"Invalid input, pick between 3, 4, 5, or 6\");\r\n\r\n        if (tokenId == 3) {\r\n            _burn(msg.sender, tokenId, 1);  \r\n        } else if (tokenId == 4) {\r\n            _burn(msg.sender, tokenId, 1); \r\n        } else if (tokenId == 5) {\r\n            _burn(msg.sender, tokenId, 1); \r\n        } else if (tokenId == 6) {\r\n            _burn(msg.sender, tokenId, 1);\r\n        } else {\r\n            revert(\"Incorrect Selection!\");\r\n        }\r\n        \r\n    }\r\n\r\n    function tradeForToken(uint256 tokenId) public {\r\n        require(tokenId >= 0 && tokenId <= 2, \"tokenId is out of range\");\r\n\r\n        // Burn the specified tokenId\r\n        _burn(msg.sender, tokenId, 1);\r\n\r\n        // Mint a new token with ID in the range [0-2]\r\n        _mint(msg.sender, tokenId, 1, \"\");\r\n\r\n        // Update the last mint time for the new token\r\n        lastMintTime[tokenId] = block.timestamp;\r\n    }\r\n  \r\n}\r\n",
  "sourcePath": "C:\\Users\\ADMIN\\Assignments M3\\my-app\\contracts\\Token.sol",
  "compiler": {
    "name": "solc",
    "version": "0.8.13+commit.abaa5c0e.Emscripten.clang"
  },
  "schemaVersion": "3.4.14",
  "updatedAt": "2023-06-09T02:33:59.351Z",
  "devdoc": {
    "kind": "dev",
    "methods": {
      "balanceOf(address,uint256)": {
        "details": "See {IERC1155-balanceOf}. Requirements: - `account` cannot be the zero address."
      },
      "balanceOfBatch(address[],uint256[])": {
        "details": "See {IERC1155-balanceOfBatch}. Requirements: - `accounts` and `ids` must have the same length."
      },
      "isApprovedForAll(address,address)": {
        "details": "See {IERC1155-isApprovedForAll}."
      },
      "safeBatchTransferFrom(address,address,uint256[],uint256[],bytes)": {
        "details": "See {IERC1155-safeBatchTransferFrom}."
      },
      "safeTransferFrom(address,address,uint256,uint256,bytes)": {
        "details": "See {IERC1155-safeTransferFrom}."
      },
      "setApprovalForAll(address,bool)": {
        "details": "See {IERC1155-setApprovalForAll}."
      },
      "supportsInterface(bytes4)": {
        "details": "See {IERC165-supportsInterface}."
      },
      "uri(uint256)": {
        "details": "See {IERC1155MetadataURI-uri}. This implementation returns the same URI for *all* token types. It relies on the token type ID substitution mechanism https://eips.ethereum.org/EIPS/eip-1155#metadata[defined in the EIP]. Clients calling this function must replace the `\\{id\\}` substring with the actual token type ID."
      }
    },
    "version": 1
  },
  "userdoc": {
    "kind": "user",
    "methods": {},
    "version": 1
  }
}